0100105218UNIVERSAL WHITE CEMENT CO.,LTD.    AC000000075
0500301875ANUPHAB PHANNARA(MR)               CS000000091
0100105315LEE,THAI-SING (MR)                 CC000000117
0100505358SUCHIT PUCHITKANONT(MR)            AC000000141
0510801632SUCHIT PUCHITKANONT(MR)            AS000000141
0100305359NISACHOL CHINKULPRASERT (MRS)      CC000000158
0590101839NISACHOL CHINKULPRASERT (MRS)      CS000000158
0100105416SONG MOU SAE HSIEH (MR)            CC000000190
0100405491THANINEE PATAROPONG (MISS)         AC000000265
0590101999THANINEE PATAROPONG (MISS)         CS000000265
0100106749SORNGSRI SIRIVATANA                CC000000315
0100504066KAMTHORN IAMSURI(MR)               AC000000448
0100104153SIPHYA CURIO&FURNITURE CO.,LTD.    CC000000539
0100304326SIPHYA CONSTRUCTION CO.,LTD.       CC000000638
0100708637BOONKUA SONGTHAMAWAT (MR)          CC000000646
0500307855BOONKUA SONGTHAMAWAT (MR)          AS000000646
0100704353YUN-TOEN TSAI (MISS)               CC000000661
0100504392HERBERT CHANG (MR)                 AC000000695
0100604400CHEE,YEE-KWOK (MR)                 CC000000703
0100404642AROON VICHITKULWONG(MR)            CC000000901
0500601243AROON VICHITKULWONG(MR)            CS000000901
0100404788LIM TEAK HONG                      CC000000950
0100804951TAKKING SUKSATHIAN (MRS)           CC000001032
0500901834TAKKING SUKSATHIAN (MRS)           CS000001032
0100104988KIM SAE NGUAN LP                   AC000001065
0100304996NG THYE NGAK LP                    CC000001073
0100605013MEGA INTERNATIONAL COMMERCAIL PCL. AC000001099
0100905035SERMSRI CHONGCHATURAPAT (MRS)      CC000001131
0510800717SERMSRI CHONGCHATURAPAT (MRS)      CS000001131
0100705036PRAPASRI VITHSUPALERT (MISS)       CC000001149
0590101539PRAPASRI VITHSUPALERT (MISS)       CS000001149
0100305118FOUKOK INDUSTRIAL CO.,LTD.         CC000001172
0100305123HSIEH,HAN-CHANG(MR)                AC000001198
0100605145BOONSERM TEJAWATCHARA (MRS)        CC000001214
0510501681BOONSERM TEJAWATCHARA (MRS)        CS000001214
0100305161SUWIMOL CHARARINCHAI (MISS)        CC000001222
0500101937SUWIMOL CHARARINCHAI (MISS)        CS000001222
0100900014LIANG,YEE-WAH (MRS)                CC000001321
0510301026PITIYA YOSSUNDHARAKUL (MISS)       CS000001354
0100300050LIANG,HSIAO-HSI (MR)               AC000001404
0510300300SAN FOO-CHEW (MR)                  CS000001420
0100709169RIG THAI ENGINEERING CO.,LTD.      AC000001421
0100600020YEN SIRIJANE (MR)(JAMES C.C.CHENG) AC000001438
0510500295YEN SIRIJANE (MR)(JAMES C.C.CHENG) AS000001438
0100700411LEE YUEN CHEONG (MR)               AC000001461
0510702528C.K. PITT (MR)                     AS000001487
0510600515VADEE BUNCHONCHIN (MRS)            CS000001503
0100601821TANG HOH CHIEN (MR)                CC000001537
0100506602OASIS ENTERPRISE CO.,LTD.          CC000001552
1300603988BES ENGINEERING CORPORATION BANGKOKCC000001982
1200304517SOONTHORN METAL CAN CO,.LTD.       AC000002014
1300204602THAI TEXTILE ENGINEERING LTD.,PART.CC000002022
1200704851CHAROONG THAI WIRE AND CABLE PCL.  AC000002048
0100205042HIANG SENG FIBRE CONTAINER CO.,LTD.AC000002055
0500306884HIANG SENG FIBRE CONTAINER CO.,LTD.AS000002055
1200206068SOONTHORN METAL INDUSTRIES CO.,LTD.AC000002089
1200707666LEE THAI MUI 1991 CO.,LTD.         AC000002113
0100506237SUPREME PRODUCTS CO.,LTD.          AC000002162
1200906325ETERNAL RESIN CO.LTD               AC000002196
1200306343PAN ASIA (1981) CO.,LTD.           AC000002204
0580500282PAN ASIA (1981) CO.,LTD.           AS000002204
1200206354PLASTIC PRODUCT CO.,LTD.           CC000002212
1300306361NGOW HONG THYE GEMS LTD.,PART.     AC000002220
0580800163NGOW HONG THYE GEMS LTD.,PART.     AS000002220
1300306365NUMSIN LAISATHIT (MR)              CC000002238
0100106381IAM BUNCHALOEMVIPHAS (MR)          AC000002246
1300807779TITAN UNIVERSAL TRADING CO.,LTD.   CC000002287
0500107845THAISIN SCREW INDUSTRY CO.,LTD.    CS000002295
0100306629THAVEE & VIRUT (MR,MR)             CC000002303
2200401319CHINA INSURANCE CO.(SIAM)LTD.      AC000002352
0510600935CHINA INSURANCE CO.(SIAM)LTD.      AS000002352
0510901264VIROON CHALERMSUK (MR)             CS000002485
1300105177THAVORN KARNCHANG                  CC000002519
0100100150CHIN SHAI                          AC000002576
0500704438CHEN,TIEN-RONG (MR)                AS000006023
0500404440SUN,NAI-CHING (MR)                 AS000006049
0500804444KEENGRACE LTD.                     AS000006080
0500704447YUAN,QING-LIU (MR)                 AS000006114
0500404448LU,SEI-BING (MR)                   AS000006122
0500504449WU,NAN-LANG (MR)                   AS000006130
0500504450WU,CHUNG-KUANG (MR)                AS000006148
0500304452CHEN,LIN LING-LING (OR LESLIE LIN) CS000006163
0570300565CHEN,LIN LING-LING (OR LESLIE LIN) CS000006163
0500404453CHANIN JANTARAPOOTIR (MR)          AS000006171
0500504454SING YING POTTERY CO               AS000006189
0500604455WU,KO-CHI(MR)                      AS000006197
0100707276CHEN,CHI-SHENG (MR)                AC000006205
0500704456CHEN,CHI-SHENG (MR)                CS000006205
0500604460KUO,HU (MR)                        AS000006247
0500504463PAN,MING-KUANG (MR)                CS000006270
0500504467LAOAEH SAELEE (MR)                 AS000006312
0500604468WANG,KUANG-HSIUNG.                 AS000006320
0500704469CHUANG,CHIN-YUAN (MR)              AS000006338
0500304470LIN,WANG-CHAO (MR)                 AS000006346
0500404471LU,CHI-SHUNG (MR)                  AS000006353
0510504472LIN,CHING-HSIANG(MR)               AS000006361
0100308045PHANNE PRASITRATANAP               CC000006379
0500604473PHANNE PRASITRATANAP               CS000006379
0500704474HSIEH,YAO-HSING (MR)               AS000006387
0500504476SURANG SAEHU (MISS)                AS000006403
0500704478PAO,KOK-TSAI(MR)                   AS000006429
0500604482KUO,MU-SHENG (MR)                  AS000006460
0500704483WU,MU-SHENG (MR)                   CS000006478
0500404484TAI,JIH-HSIN (MR)                  AS000006486
0500504485CHAO,HSING-TAI (MR)                CS000006494
0500504490APICHAI KUSONRUNGCHA(MR)           AS000006544
0500404493HUANG,MING-SHUN (MR)               AS000006577
0500704496CHEN,CHIEN-HSING                   CS000006601
0570800347CHEN,CHIEN-HSING                   CS000006601
0500504498LAI,CHUN-CHIH (MISS)               AS000006627
0500604499LAI,JONG-CHOU (MISS)               AS000006635
0500204501LIU,MING-TZUNG (MR)                CS000006650
0500304502LIU,CHENG-I (MR)                   AS000006668
0500404503LIN,KO-PIN (MR)                    CS000006676
0500504504MARY CHENG MEI (MISS)              AS000006684
0100207359YUEH,JUNG-LIN (MR)                 AC000006692
0500604464YUEH,JUNG-LIN (MR)                 CS000006692
0100508447PENG,HSIN-WEN (MR)                 AC000006700
0500404506PENG,HSIN-WEN (MR)                 AS000006700
0500704507HSIAO,LIANG-YANG                   AS000006718
0500204508PAI,CHIH-HUNG (MR)                 AS000006726
0500304511WU,KUANG-YI                        AS000006759
0500604512HSIEH,WEN-LUNG(MR)                 AS000006767
2200407341KAO HONG INDUSTRIAL CO.,LTD.       AC000006775
0500904513KAO HONG INDUSTRIAL CO.,LTD.       AS000006775
0580700013KAO HONG INDUSTRIAL CO.,LTD.       AS000006775
0100607302PRONSAK THAMKONGKA (MR)            AC000006783
0500104514PRONSAK THAMKONGKA (MR)            AS000006783
0100507303GEORGE TSAI (MR)                   AC000006791
0500404515GEORGE TSAI (MR)                   AS000006791
0500704516YANG,HUEI-MEI (MISS)               AS000006809
0500204517SING YANG IMPORTEXPORT L.P.        AS000006817
0500504518YEH,SZU-SHUI (MR)                  AS000006825
0500304520CHEN,TUNG-HAI (MR)                 AS000006841
0500604521CHIANG,YUN-LI (MISS)               AS000006858
0500904522KAO,CHUNG-CHIH (MR)                AS000006866
0500604523WANG,HUNG-TU (MR)                  AS000006874
0599999999DORMANT "B" A/C SAV                AS000006882
0500704525CHEN,CHIN-CHANG                    AS000006890
0100107305CHEN,WAN-YUAN (MR)                 CC000006916
0500504527CHEN,WAN-YUAN (MR)                 AS000006916
0500804528LEE,NIEN-HSIANG (MR)               AS000006924
0500304529CHEN,YU-CHU (MISS)                 AS000006932
0100107942CHUTIMA VACHIRASAREECHAI (MISS)    CC000006940
0100209228CHUTIMA VACHIRASAREECHAI (MISS)    AC000006940
0500904531CHANG,YANG-I (MR)                  AS000006957
0500104532TSAI,PEI-CHI (MISS)                AS000006965
0500704534YU,FANG-YUAN (MR)                  AS000006981
0500204535LU,MING-YI (MR)                    AS000006999
0500504536CHEN,CHUN-MU (MR)                  AS000007005
0500804537CHI,SHIH-HSUN                      AS000007013
0500304538CHEN,LO-YI (MR)                    CS000007021
0500604539LIAO,KUO-TUNG (MR)                 AS000007039
0500904540LIAO,LI-FANG (MR)                  AS000007047
0500104541LIN,JUI-KUN (MR)                   AS000007054
0500704543LEE,SHING-LONG (MR)                AS000007070
0500204544CHANG,JEE-SUN (MR)                 AS000007088
0500804653LIN,CHENG-YI (MR)                  AS000007096
0500804546CHANG,CHIU SHIU-MING (MRS)         AS000007104
0500304547LIU,KUN-LAN (MR)                   CS000007112
0500904549LU,FANG-MING(MR)                   CS000007138
0100207321FAN,CHEN-HSIU (MR)                 AC000007146
0500104550FAN,CHEN-HSIU (MR)                 CS000007146
0500204553NIPAT CHAROENFUPRASE (MR)          AS000007161
0100508118CAL-COMP ELECTRONICS(THAILAND)PCL. AC000007179
1200707331CAL-COMP ELECTRONICS(THAILAND)PCL. AC000007179
0500504554CAL-COMP ELECTRONICS(THAILAND)PCL. AS000007179
0580900002CAL-COMP ELECTRONICS(THAILAND)PCL. AS000007179
0500904558LAI,CHING-KUEI (MR)                CS000007211
0500104559YU,DA-CHOU (MR)                    AS000007229
0100507325LU,SHENG-FANG (MR)                 CC000007237
0500404560LU,SHENG-FANG (MR)                 AS000007237
0500704561HUAD CHAIWANICHYA.                 AS000007245
0500504563WONG,CHI-FU (MR)                   CS000007260
0500804564SU,CHUNG-PI (MR)                   AS000007278
0100707327WU,CHUNG-CHEN (MR)                 AC000007286
0500304565WU,CHUNG-CHEN (MR)                 CS000007286
0500509884WU,CHUNG-CHEN (MR)                 AS000007286
0500604566LEE,CHUNG-CHEN (MR)                AS000007294
0500304654CHEN,SU-LONG (MR)                  AS000007302
0100107337WANG,YU-SHU (MR)                   AC000007310
0500104568WANG,YU-SHU (MR)                   AS000007310
0500704570CHEN,MING-HSING (MR)               AS000007336
0500504572YEH,CHUNG-CHUAN (MR)               AS000007351
0500904576CHANG,PEN YUAN                     CS000007393
0500206888HSIEH,JUNG-HUI (MR)                AS000007401
0570700448HSIEH,JUNG-HUI (MR)                AS000007401
0500504578PAI,CHIH-LUNG(MR)                  AS000007419
0500704579LIU, HSU SHU-MIN.                  CS000007427
0500204580TSAO,TZU-FENG                      CS000007435
0100307339CHIUNG-YING &/OR CHI               AC000007443
0500504581CHIUNG-YING &/OR CHI               CS000007443
0100407732HOU,CHIN-CHUAN (MR)                CC000007450
0500605544HOU,CHIN-CHUAN (MR)                CS000007450
0500104586SWE SWE (MISS)                     AS000007492
0500504587LEE,CHEN WEI-HSIANG                CS000007500
0500904656CHUNG,JUNG-LUNG (MR)               AS000007526
0100908273LIU,MING-HSI (MR)                  AC000007534
0500306857LIU,MING-HSI (MR)                  AS000007534
0500104595HSIAO,MU-CHUAN (OR) HSIAO,YA-WUN   CS000007583
0500404596KUO,SHIH SU-HUI (MR)               AS000007591
0500704597HSIAO,MING-KUO(MR)                 AS000007609
0500204598CHANG,PING-I (MR)                  AS000007617
0500504599PAIROJ BOONCHU(MR)                 AS000007625
0500804600CHEN,SHENG-HUA (MR)                AS000007633
0500604602LIN,CHI-HSIUNG (MR)                AS000007658
0500904603CHEN,CHING-CHIANG                  AS000007666
0500104604KUO,TSUNG-JEN (MR)                 AS000007674
0100807345HUI KWANG (THAILAND) CO.,LTD.      CC000007708
0500804609CHEN,MEI-HUA (MISS)                AS000007724
0500904612CHEN,CI-CHIN (MR)                  AS000007757
0100907347HSIAO,SHENG-YUNG(MR)               AC000007765
0500404614LIN,YUEH-YAHG (MR)                 AS000007773
0500704615WU,AO-CHUN (MR)                    CS000007781
0500904621LEE,NAI-CHIN (MISS)                CS000007849
0500404623HUANG,TENG-SHIH (MR)               AS000007864
0500704624CHEN,HUANG-CHUAN (MR)              CS000007872
0500804627LIN,CHUN-KUAN(MR)                  AS000007906
0500304628CHEN,WEI-KUO (MR)                  AS000007914
0500604629YANG,KUN-LUNG (MR)                 AS000007922
0500104657WU,WEN-CHI (MR)                    AS000007948
0100907101LIN,JUI-KUN (MR)                   CC000007963
0500404658LIN,JUI-KUN (MR)                   AS000007963
0500204634LIN,KUO-HSIANG (MR)                CS000007971
0500604638HSU,PING-HUANG (MR)                CS000008011
0100307354HSIEH,CHAN-LEE(MR)                 CC000008060
0500504644YU,CHING-TU (MR)                   AS000008078
0500304646CHIU,SHUN-I (MR)                   AS000008094
0500604647LO,TZU-JAN (MR)                    AS000008102
0100907499ARTIST THAI CORPORATION LIMITED    AC000008144
0500204652LIN,CHIN-HUANG (MR)                AS000008151
0500704659MAI,YEN-YI(MR)                     AS000008169
0500204660YU,YUNG-LI (MR)                    CS000008177
0500604664SHIH,NEI-WEN (MR)                  AS000008219
0500104666LIN,PO-CHENG (MR)                  CS000008235
0500504670CHEN,YU-CHEN (MISS)                CS000008276
0500604655FANG,MAO-SHENG(MR)                 AS000008284
0500304672AUNCHALEE PRAKOBTHAM (MISS)        AS000008292
0100408050HSIUAN,TE-YING (MR)                CC000008326
0500104675HSIUAN,TE-YING (MR)                AS000008326
0500704677YUAN,SHOU-HSIANG.                  AS000008342
0500804680CHEN,MING-TSAI (MR)                CS000008375
0500304681LEE,WEN-LUNG (MR)                  AS000008383
0500604682TSAI,WEI-TA (MR)                   AS000008391
0100307380TICA INTERNATIONAL CO.,LTD.        AC000008409
0500904683TICA INTERNATIONAL CO.,LTD.        AS000008409
0500104684SHIH,CHING-SHUANG                  AS000008417
0500404685YANG,LIN FEN-LIN (MRS)             AS000008425
0500704686NIPA KASITINON (MRS)               CS000008433
0500204687CHAROON KASITINON (MR)             CS000008441
0500504688VIDHAYA KASITINON(MR)              CS000008458
0500804689VIRAT KASITINON (MR)               CS000008466
0500304690SU,SHU-CHENG (MISS)                AS000008474
0500904692HONG,MU-WANG (MR)                  AS000008490
0100107374SINO THAI CREATION INT'L CO.,LTD.  AC000008524
0500704695SINO THAI CREATION INT'L CO.,LTD.  AS000008524
0500204696WANG,KUO-CHI (MR)                  AS000008532
0500504697WELTA PAOTHONG                     AS000008540
0500604700TSAO,TZU-CHING (MR)                AS000008573
0100107375TONG TECH CO.,LTD.                 AC000008607
0500404703TONG TECH CO.,LTD.                 CS000008607
0500204705YANG,CHEN-SHI (MR)                 AS000008623
0100207377CHANG,CHIEN-FANG (MR)              AC000008631
0500504706CHANG,CHIEN-FANG (MR)              AS000008631
0500804707LIN,YEN-KUN (MR)                   CS000008649
0500304708HUANG,LI-HWA (MISS)                CS000008656
0500604709LIAO,KO-CHIH (MR)                  AS000008664
0500704713UTHAI SOMPRASOPSUK                 AS000008706
2200807397TORCH LITE (THAILAND) CO.,LTD.     CC000008714
0500204714TORCH LITE (THAILAND) CO.,LTD.     CS000008714
0580800001TORCH LITE (THAILAND) CO.,LTD.     CS000008714
0500504715INT'L METAL IND.CO.                AS000008722
0500604718WU,CHIN-LUNG (MR)                  CS000008755
0500704722WU,MIN-SHEN ALSO STE               AS000008797
0500504724CHANG,SHIH-JEN (MR)                CS000008813
0500804725ING-ON TIPTAVAJVONGS               CS000008821
0100707864PORNTHEP CHUTSATHAPORNCHAI (MR)    AC000008862
0500404730LIEN,CHANG-HSING (MR)              AS000008870
0570500197LIEN,CHANG-HSING (MR)              AS000008870
0500704731CHEN,SHENG-TE (MT)                 AS000008888
0500904737YANG,CHEN TSAI-CHU                 AS000008946
0500104924LIN,JYH-JONG (MR)                  AS000008953
0100107392CHEN,SZU-CHING (MR)                AC000008979
0500704740CHEN,SZU-CHING (MR)                AS000008979
0500204741CHEN,WEI-FAN (MR)                  AS000008987
0500804743HOI THAI PROPERTY CO               AS000009001
0500604745HUANG,CHUN-CHIH (MR)               AS000009027
0500904746OU,CHIA,CHANG OR CHO               AS000009035
0500104747LIN,TIEN-SHAN (MR)                 AS000009043
0500404748HUNG,SU-JANE (MISS)                AS000009050
0500704749TU,CHING-CHAO ALSO K               CS000009068
0500304753YANG,LIN CHING-LING (MRS)          AS000009100
2200407393HIGHER JACK CO.,LTD.               CC000009126
0500904755HIGHER JACK CO.,LTD.               CS000009126
0500404757YEH,FU-CHUN (MR)                   AS000009142
0500804761HSU,MU-LIN (MR)                    AS000009175
0100907613YANG,TIEN-TANG (MR)                CC000009191
0100507396GREEN-JOY PRODUCTS                 AC000009225
0500804767YONG HONG MACHINERY                AS000009233
0100407714VIBHAVAN YOSSUNDHARAKUL (MISS)     CC000009241
0500904770OU,CHING-SHUI.(MR)                 CS000009266
0500404772SCAN ELECTRONIC IND.               AS000009282
0580300026SCAN ELECTRONIC IND.               AS000009282
0500305002WU,HUEY (MRS)                      AS000009290
0500204774LEE,JUNG-CHUN (MR)                 AS000009308
0500504775HUANG,JEN-SHOU (MR)                AS000009316
0500804776AOONCHIT KAJOHNPHADUNGKITTI(MS)    AS000009324
0100907400STONE MARK CORPORATION LIMITED     AC000009332
0500304777STONE MARK CORPORATION LIMITED     AS000009332
0580500473STONE MARK CORPORATION LIMITED     AS000009332
0500104780WANG,BI-CHI (MR)                   AS000009365
0500204783LIN,MENG-CHE (MR)                  AS000009399
0500504784KUNG LIN IND.CO.LTD.               AS000009407
0500304786DUONG,THE-KHANH (MR)               CS000009423
0500904788HUANG,HSIU-LIEN (MISS)             CS000009449
0100907409HSIEH,CHIH-MING(MR)                CC000009456
0500404790CHIAO FU ENTERPRISE CO.,LTD.       AS000009464
0500504793CHEN,CHEN-CHUAN (MR)               AS000009498
0500804794CHEN,YUNG-LIANG (MR)               AS000009506
0500304795CHEN,KUO-CHUN (MR)                 AS000009514
0100407912CHEN,LAN-HSIANG (MISS)             AC000009563
0500805741CHEN,LAN-HSIANG (MISS)             AS000009563
0100807451SUMMOON CO., LTD.                  CC000009589
0500504802SUMMOON CO., LTD.                  CS000009589
0100607417LEE,I-CHANG (OR) CHEN,TSUI-KING    CC000009605
0500304804LEE,I-CHANG (OR) CHEN,TSUI-KING    AS000009605
0500604805WANG,YI-SHOWN (MR)                 AS000009613
0500504928FREE FRIENDLY FELLOW               CS000009621
0500104807CHEN,CHIN-LUNG(OR)LIOU,CHIH-POUNG  AS000009639
0500704809HSIEH,YUAN-HSUN                    AS000009654
0500504811CHEN,WEN-HSIU (MR)                 AS000009670
0100107419WENDY TAI (MISS)                   CC000009688
0500804812WENDY TAI (MISS)                   CS000009688
0570300076WENDY TAI (MISS)                   CS000009688
0500304813YOUNG LEE TRADING CO.,LTD.         AS000009696
0500904815HUNG,MIN-CHI (MR)                  CS000009712
0500104816HUNG,CHI-LU (MR)                   AS000009720
0500704818CHEN,FENG-JEN (MR)                 AS000009746
0500204819PAN,JUNG-CHEN (MR)                 AS000009753
0570200258PAN,JUNG-CHEN (MR)                 AS000009753
0100607426AUGUST EUCALYPTUS PROJECTS CO.,LTD.CC000009761
0500804821LAI,YI-TSAI (MR)                   AS000009779
0500404826HOSIWELL (THAILAND)                CS000009829
0100407465SPEEDY INTERNATIONAL LTD.          AC000009845
0500604931SPEEDY INTERNATIONAL LTD.          AS000009845
2300707430W & J CORP.,LTD.                   AC000009886
0500604832W & J CORP.,LTD.                   AS000009886
0100107502PROGOLDENTEX INT'L                 AC000009910
0500404835PROGOLDENTEX INT'L                 AS000009910
0500204837CHEN,CHIH (MR)                     AS000009936
0500804839ANUCHPHAN KACHONPAKU               CS000009951
0500304840E.J. CLEANING CO.,LTD.             AS000009969
0100508352THAILOCK FASTENERS CO.,LTD.        AC000009993
0500907011THAILOCK FASTENERS CO.,LTD.        AS000009993
0580700580THAILOCK FASTENERS CO.,LTD.        CS000009993
0500404844CHEN,CHING-CHIANG (MR)             AS000010009
0500305797ART AND CRAFT CERAMI               CS000010025
0500505799HSU,CHIN-CHAO (MR)                 AS000010041
0570200066HSU,CHIN-CHAO (MR)                 AS000010041
0500805802HSIEH,HUNG-TA (MR)                 AS000010074
0500905803HUANG,YIN-TE (MR)                  AS000010082
0100807851L.J. IMPEX CO.,LTD.                AC000010108
0500305805L.J. IMPEX CO.,LTD.                AS000010108
0500505806HU,CHIA-YU (MRS)                   AS000010116
0500905808KAMLOON SOMTOBBU (MR)              CS000010132
0500805812CHEN,YU-WEN (MS)                   AS000010173
0100107852MANEE SILA 1991 CO.,LTD.           AC000010181
0500905813MANEE SILA 1991 CO.,LTD.           AS000010181
0500705814SAIRUNG (MISS)                     AS000010199
0500105815CHANG,FANG-KUEI                    AS000010207
0500505817TSAI,HENG-LUN (MR)                 AS000010223
0500606135TSAI,HENG-LUN (MR)                 AS000010223
0570500107TSAI,HENG-LUN (MR)                 CS000010223
0500905819WORACHAI KHUMFONG (MR)             CS000010249
0500305822CHOU,TAI-SHENG (MR)                CS000010272
0100707855BAAN YUAN STAINLESS STEEL CO.,LTD. CC000010298
0500505824BAAN YUAN STAINLESS STEEL CO.,LTD. CS000010298
0580700664BAAN YUAN STAINLESS STEEL CO.,LTD. CS000010298
0500805827LIN,FU-YUAN (MR)                   AS000010322
0500905828TSAI,KUI-FEN (MRS)                 AS000010330
0570400115TSAI,KUI-FEN (MRS)                 CS000010330
2200907856ARFEN INTERNATIONAL CORP. CO.,LTD. CC000010355
0500205830ARFEN INTERNATIONAL CORP. CO.,LTD. CS000010355
0100207857MARKO TACK (THAILAND)CO.,LTD.      AC000010389
0500505833MARKO TACK (THAILAND)CO.,LTD.      AS000010389
0500605834LEE,CHUN-HUNG (MR)                 AS000010397
0100607904TTM INDUSTRIAL CO.                 CC000010405
0500705835TTM INDUSTRIAL CO.                 CS000010405
0500805836LO,PEI-YU (MISS)                   CS000010413
0500905837WU,CHIEN-SHUN (MR)                 AS000010421
0500305840NUAY OR HSUEH-FEN(MR)              CS000010454
0500505842WU,CHENG-HUANG (MR)                AS000010470
0100807905JAI,JA-MIN (MR)                    AC000010488
0500605843JAI,JA-MIN (MR)                    AS000010488
0500705844CHANG,CHIN-FONG (MR)               CS000010496
0500805845TSE-HSIN & YUNG-HUA                CS000010504
0500905846MEI DAMRONGCHAITHAM (MRS)          CS000010512
0100507956TSENG LIU,LI-CHU (MRS)             CC000010520
0500105847TSENG LIU,LI-CHU (MRS)             AS000010520
0100307862YEN,TSONG-JYH (MR)                 AC000010553
0500705850YEN,TSONG-JYH (MR)                 AS000010553
0500905851SAENGLAH KULLAMAI (MRS)            CS000010561
0500205852HUANG,CHENG-I (MR)                 CS000010579
0500605854LAI,CHIA-HUNG (MR)                 AS000010595
0500805855PIMALA SRISAWAT (MRS)              CS000010603
0500905856CHEN,CHIH-MING (MR)                AS000010611
0100908138CHEN,THE-E (MR)                    AC000010629
0500105857CHEN,THE-E (MR)                    AS000010629
0500305858NERNGLERTAI NETSENI (MISS)         CS000010637
0500505859CHIANG,MING-CHI (MR)               AS000010645
0570900934CHIANG,MING-CHI (MR)               AS000010645
0500605864PORNTHIP TIENMUAN (MR)             CS000010694
0500805865REVADEE DANSERMSU (MS)             AS000010702
0500905866PORNSAK JOVITOONKIT                CS000010710
0500105867KU SIEN (MISS)                     AS000010728
0500305868KITTI GAVINRATCHATAROT(MR)         AS000010736
2200207866MONPLAISIR FASHION CO.,LTD.        AC000010769
0500805871MONPLAISIR FASHION CO.,LTD.        AS000010769
0100407867EURONE THAI CO.LTD.                CC000010777
0500905872EURONE THAI CO.LTD.                AS000010777
0500105874ALISA CHUANKAJORNPONG (MRS)        CS000010793
0500405877TIAN,CHIU-HSIUNG (MR)              AS000010827
0500505878HSUEH,YUAN-HSUN (MR)               CS000010835
0100807869TOLLY INT'L.CO.LTD.                AC000010843
0500605879TOLLY INT'L.CO.LTD.                AS000010843
0100408374S.C.T.INDUSTRIES CO.,LTD.          CC000010868
0500805881S.C.T.INDUSTRIES CO.,LTD.          AS000010868
0100507872FINESSE ENTERPRISE CO.,LTD.        CC000010884
0500305883FINESSE ENTERPRISE CO.,LTD.        AS000010884
0580800382FINESSE ENTERPRISE CO.,LTD.        AS000010884
0500405884SAENGPLOY INPROM MS)               CS000010892
0500605886PUNNEE CHITRATTA (MS)              CS000010918
0500705887THANONGSAK AREEWA (MR)             CS000010926
0500805888SEKTAKARN SUCHARTLIKITWONG (MR)    CS000010934
0500905889CHU,TSUI-HSIA (MRS)                CS000010942
0500105890HUANG,CHEN MEI-HUI (MRS)           CS000010959
0500105891CHANG,HSU-YU (MR)                  AS000010967
0100907874KO,FU-HSIUNG (MR)                  AC000010975
0500205892KO,FU-HSIUNG (MR)                  AS000010975
0500405894PRASERT PRAKITTIPONG               CS000010991
0100607877WU,TE-CHENG (MR)                   AC000011007
0500505895WU,TE-CHENG (MR)                   CS000011007
0500805898SU,SHU-JUNG (MRS)                  AS000011031
0500905899FU SANG CO.LTD.                    AS000011049
0580400626FU SANG CO.LTD.                    CS000011049
0500905900CHANCHAI HARNTHAMTON               CS000011056
0500105901ARUNEE SINGKAWE (MISS)             CS000011064
0100107879CONNECT INDUSTRIAL                 AC000011072
0500205902CONNECT INDUSTRIAL                 CS000011072
0500305903LIU,HSIU-YUN (MISS)                AS000011080
0100307880HUANG,CHUANG SHUEHOU               AC000011098
0500405904HUANG,CHUANG SHUEHOU               AS000011098
0500505905JONGKOLNEE WAT (MISS)              CS000011106
0500605906CHUNG CHENG PLASTIC(THAILAND)CO.LTDAS000011114
0100507881AMULA'S ENTERPRISE (TH) CORP.,LTD. AC000011122
0500705907AMULA'S ENTERPRISE (TH) CORP.,LTD. AS000011122
0100707882AMULA'S (THAI) CORPORATION LTD.    AC000011130
0500805908AMULA'S (THAI) CORPORATION LTD.    AS000011130
0580600090AMULA'S (THAI) CORPORATION LTD.    AS000011130
0100407921LIU,SHUN-CHE (MR)                  AC000011148
0500905909LIU,SHUN-CHE (MR)                  AS000011148
0570200737LIU,SHUN-CHE (MR)                  AS000011148
0500105910ZHANG,JIAN-LING (MR)               CS000011155
0500305912MA,XIPING(MR)                      CS000011171
0500405913LIANG,HONG (MR)                    CS000011189
0100907883PANDA PAPER CARTONS CO.,LTD.       AC000011197
0500505914PANDA PAPER CARTONS CO.,LTD.       AS000011197
0500605915J.T.P.REAL ESTATE                  CS000011205
0100207884LIAO,PEI-YU (MR)                   CC000011213
0500705916LIAO,PEI-YU (MR)                   AS000011213
0100708317CHANG,KANG-CHUEN (MR)              AC000011247
0500105919CHANG,KANG-CHUEN (MR)              CS000011247
0500505921TODAINAMO                          AS000011262
0100108134TODDY CO.,LTD.                     CC000011288
2200807887TODDY CO.,LTD.                     CC000011288
0500306490TODDY CO.,LTD.                     CS000011288
0500905923TODDY CO.,LTD.                     CS000011288
2300107890HO,JIN-TUNG (MR)                   CC000011296
0500205924HO,JIN-TUNG (MR)                   AS000011296
0570700697HO,JIN-TUNG (MR)                   AS000011296
0100107888KUO,CHING-HSIEN (MR)               CC000011304
0500405925KUO,CHING-HSIEN (MR)               AS000011304
0100307889TSAI,SHWU-JU (MISS)                AC000011312
0500605926TSAI,SHWU-JU (MISS)                CS000011312
0100707891COIN CHEMICAL (THAILAND) CO.,LTD.  AC000011320
0500805927COIN CHEMICAL (THAILAND) CO.,LTD.  CS000011320
0500105928GREEN EARTH IMP-EXP.               AS000011338
0500305930WANG,MING-CHUAN (MR)               AS000011353
0500405931YU,TING-CHUNG (MR)                 AS000011361
0100207893LEE,FENG-CHUN (MR)                 CC000011395
0500705934LEE,FENG-CHUN (MR)                 AS000011395
0100107894BANGKOK MASTER CO.LTD.             AC000011403
0500805935BANGKOK MASTER CO.LTD.             AS000011403
0100607895CHIU,CHI-PIN (MR)                  AC000011411
0500905936CHIU,CHI-PIN (MR)                  AS000011411
0500205937HUANG,GING-SHUI (MR)               AS000011429
0100507944CHAINARONG SAELEE (MR)             CC000011437
0500405938CHAINARONG SAELEE (MR)             CS000011437
0100807896KAO,CHING-LING(MR)                 AC000011445
0500505939KAO,CHING-LING(MR)                 AS000011445
0570501719KAO,CHING-LING(MR)                 AS000011445
0500705941SOPA SAE LEE (MISS)                CS000011460
0500805942NATSIRI BOONRUANG (MR)             AS000011478
0500905943LIU,SHI-PEI (MR)                   AS000011486
1200707900YUAN DENG INDUSTRIAL CO.,LTD.      AC000011494
0500305944YUAN DENG INDUSTRIAL CO.,LTD.      AS000011494
0580300056YUAN DENG INDUSTRIAL CO.,LTD.      AS000011494
0500405945CHANG,CHUN-YUAN (MR)               CS000011502
0500605948VINIT KAEWPOOWAT (MR)              AS000011536
0500805949VIT SAE-CHANG (MR)                 CS000011544
0100108076CHANG,CHIANG-LANG (MR)             CC000011569
0500105951CHANG,CHIANG-LANG (MR)             AS000011569
0500305952SUCHART ROMREN(MR)                 CS000011577
0500905954FENG,YUAN-KUEI(MR)                 AS000011593
0100907901WAN THAI SAFEDEPOSIT               AC000011601
0500405955WAN THAI SAFEDEPOSIT               AS000011601
0100408383SHIH,TI-PING (MISS)                AC000011627
0500805957SHIH,TI-PING (MISS)                AS000011627
0570200130SHIH,TI-PING (MISS)                AS000011627
0100907899SAN SUN PROMOTIONS CO.,LTD.        AC000011643
0500305959SAN SUN PROMOTIONS CO.,LTD.        AS000011643
0500505961WU,CHIN-TING (MR)                  AS000011668
0100707909YEH,CHU-CHING (MR)                 CC000011676
0100908837YEH,CHU-CHING (MR)                 AC000011676
0500605962YEH,CHU-CHING (MR)                 AS000011676
0100907910YEH,SUNG-HO (MISS)                 AC000011684
0500705963YEH,SUNG-HO (MISS)                 AS000011684
0100207911CHING HO INTERTRADE CO.,LTD.       AC000011692
0500805964CHING HO INTERTRADE CO.,LTD.       AS000011692
0500905965WANG,LI-WEN (MISS)                 AS000011700
0500105966JUNCHAO PRANGSON (MS)              CS000011718
0100607913DAIEI THAI INDUSTRY CO.,LTD.       AC000011726
0500205967DAIEI THAI INDUSTRY CO.,LTD.       CS000011726
0500408424DAIEI THAI INDUSTRY CO.,LTD.       AS000011726
0100508037APIRAK WONGKITTIPONG (MR)          AC000011742
0590405969APIRAK WONGKITTIPONG (MR)          CS000011742
0100107915LEE,HSIU-CHIEN (MISS)              CC000011759
0500505970LEE,HSIU-CHIEN (MISS)              AS000011759
0500605971CHEN,SHUN-SHU (MR)                 AS000011767
0500705972NICOLA SCARPATO(MR)                CS000011775
0500805973MYTRONICS CO.,LTD.                 AS000011783
0500905974VICHIT PEERAPIROM (MR)             AS000011791
0100707918CHUN LONG TECHNOLOGY               CC000011809
0500205976LEE,SHIU-BUN (MR)                  CS000011817
0500305977CHUNG,TING-YIN (MR)                AS000011825
0500505978WANG,YU-SHANG (MR)                 AS000011833
0100407987LIN,CHENG-MING (MR)                CC000011858
0500806139LIN,CHENG-MING (MR)                CS000011858
0500205981CHANG,KUO-SHENG (MR)               CS000011866
0570100604CHANG,KUO-SHENG (MR)               AS000011866
0100607922JIN TAI YEE CO.LTD.                AC000011874
0500405982JIN TAI YEE CO.LTD.                AS000011874
0500605983SINGLI SAE YERN (MR)               AS000011882
0500805984HUAH,JIM-HO (MR)                   CS000011890
0500205986CHEN,GUO-TSAI (MR)                 AS000011916
0500305987ATHITHEP MAKKPUVA(MR)              CS000011924
0500405988SUCHIN KHAMLUE (MISS)              AS000011932
0100807923MICROCHIP TECHNOLOGY(TH)CO.,LTD.   AC000011940
0500505989MICROCHIP TECHNOLOGY(TH)CO.,LTD.   AS000011940
0580400048MICROCHIP TECHNOLOGY(TH)CO.,LTD.   AS000011940
0500605990SANHANN ENTERPRISE                 CS000011957
1200107924UNI-PRESIDENT (THAILAND) LTD.      AC000011965
0500605991UNI-PRESIDENT (THAILAND) LTD.      AS000011965
0580700218UNI-PRESIDENT (THAILAND) LTD.      AS000011965
0100507926CHEMIST CO.,LTD.                   AC000011973
0500805992CHEMIST CO.,LTD.                   AS000011973
0500805993CHEN,CHENG-JEN (MR)                AS000011981
0100207929YEH,CHANG-CHUN (MR)                AC000011999
0500105994YEH,CHANG-CHUN (MR)                AS000011999
0500105995TU,PING-HUI (MRS)                  CS000012005
0570100171TU,PING-HUI (MRS)                  AS000012005
0100407930PALEE PAPER IND. CO.,LTD.          AC000012013
0500205996PALEE PAPER IND. CO.,LTD.          CS000012013
0500205997LEE,CHIH-PING (MR)                 AS000012021
0570600284LEE,CHIH-PING (MR)                 AS000012021
0100107897TONG LONG THAI PAPER CO.,LTD.      AC000012047
0500305999TONG LONG THAI PAPER CO.,LTD.      AS000012047
0100307898HSU,CHUN-HUA (MR)                  AC000012054
0500406000HSU,CHUN-HUA (MR)                  AS000012054
0100708029KULTICHA PUNYAWECHAMONTRI (MISS)   AC000012062
0500706003LIU,SY-LIANG (MR)                  AS000012088
2200107933FOMOTHAI CORPORATION CO.,LTD.      AC000012104
0500906005FOMOTHAI CORPORATION CO.,LTD.      CS000012104
0580100054FOMOTHAI CORPORATION CO.,LTD.      CS000012104
0500206006LEE,HSIANG-PEI (MISS)              AS000012112
0500406007WANG,TUN-CHIN (MISS)               CS000012153
0500606008WANG,CHI-HO (MR)                   CS000012161
0500806009LEE,WANG-CHING (MISS)              AS000012179
0500106010TSAI,SEN-CHEN (MR)                 AS000012187
0500906010TSAI,SEN-CHEN (MR)                 AS000012187
0500306012CHAOWANEE NARKKU (MRS)             AS000012203
0500706014VISIT MAETEEPARK(OR)JANTHANA MAETEEAS000012229
0500806015VATCHARAPOL PRAMU (MR)             CS000012237
0500206016YEH,MEI-HWA (MRS)                  CS000012245
0500306017LO,SHIH-YUNG (MR)                  AS000012252
0100307934GOLDEN PALACE CO.,                 AC000012278
0500506019GOLDEN PALACE CO.,                 AS000012278
2200807950YESCOM CORPORATION(THAILAND)CO.LTD.AC000012286
0500606020YESCOM CORPORATION(THAILAND)CO.LTD.CS000012286
0580600161YESCOM CORPORATION(THAILAND)CO.LTD.AS000012286
0500706021CHANG,TIEN-FANG (MR)               CS000012294
0500906023KUNG,HUA-TING (MISS)               CS000012310
0500206024KUNG,HUA-CHUN (MR)                 CS000012328
0100608132KIM KON KOOK (MR)                  CC000012344
0500406026KIM KON KOOK (MR)                  AS000012344
0500106027HUANG,FENG-TING (MR)               AS000012351
0500206028CHAROEN CHONGTHAN (MR)             AS000012369
0500306030FU,WEN-YA (MR)                     AS000012385
0500606031CHUAEPANYA NAMPRA (MR)             AS000012393
0500706032FANG,CHING-TAN (MR)                AS000012401
0500706036MEI,HSIU-WEN(MR)                   AS000012443
0500106037HUANG,YU-CHI (MR)                  AS000012450
0500306038CHEN,CHI-CHENG (MR)                AS000012468
0500506039CHEN,CHIUNG-MIN (MISS)             CS000012476
0500706040TEO,SENG-LIANG (MR)                AS000012484
0100607979LIU,FEI (MISS)                     AC000012492
0500906041LIU,FEI (MISS)                     AS000012492
0500206042K.C.ENGINEERING L.P.               AS000012500
0100907958WANG,CHIN-FENG (MR)                AC000012526
0500606044WANG,CHIN-FENG (MR)                AS000012526
0500806045VITHEP AROONKAYAN (MR)             AS000012534
0100307943UNITED PRODUCTS INT'L CO.,LTD.     CC000012542
0100608999UNITED PRODUCTS INT'L CO.,LTD.     AC000012542
0500108913UNITED PRODUCTS INT'L CO.,LTD.     AS000012542
0500306047UNITED PRODUCTS INT'L CO.,LTD.     CS000012542
0500706049SAENGCHAN YAMKUL (MRS)             AS000012567
0500206051JITTIMA CHANG (MRS)                CS000012583
0100807989NATESAKAOW PHOONSAPHIRUN (MISS)    CC000012591
0590306052NATESAKAOW PHOONSAPHIRUN (MISS)    CS000012591
0500406053CHEA,GUOT-CHUA (MR)                CS000012609
0100707945IVAN,CHENG-CHI LIANG (MR)          CC000012617
0500506054IVAN,CHENG-CHI LIANG (MR)          AS000012617
0100908828LIN,CHIH-TA (MR)                   AC000012625
0500606055LIN,CHIH-TA (MR)                   AS000012625
0570800510LIN,CHIH-TA (MR)                   AS000012625
0100207947PROSPEROUS ENTERPRISES(THAILAND)LTDCC000012633
0500806057LEE,CHIN-SHEN (MR)                 AS000012641
0500906058THAM,CHEN HUI-JU (MRS)             AS000012658
0500106059KAO,SHOU-HSIN (MR)                 CS000012666
0500206060HSU,PI-CHIEN (MISS)                CS000012674
0500406062CHANG,YU-FAN (MR)                  CS000012690
0500506063LIN,TSENG-CHUN (MISS)              AS000012708
0100608087LIAO,KUANG-YANG (MR)               CC000012716
0500106363LIAO,KUANG-YANG (MR)               CS000012716
0570500250LIAO,KUANG-YANG (MR)               CS000012716
0100308090KUO,HUI-LI (MISS)                  AC000012732
0500506365KUO,HUI-LI (MISS)                  AS000012732
0500906367LINDA KONGSIT (MISS)               AS000012757
0500206368TSENG,TAI-YUAN (MR)                AS000012765
0100108089CHUNG,WEN-CHING (MR)               AC000012773
0500406369CHUNG,WEN-CHING (MR)               AS000012773
0100708092HSU,TSUI-CHEN (MISS)               AC000012781
0500606370HSU,TSUI-CHEN (MISS)               AS000012781
0500806371CHEN,YAO-MIN                       AS000012799
0500106372CHENG,SU-HSUN (MR)                 CS000012807
0570300096CHENG,SU-HSUN (MR)                 CS000012807
0100208094CHEN,HUEI-LING (MS)                AC000012823
0500506374CHEN,HUEI-LING (MS)                AS000012823
0500906376MAO,FAN-CHIEH (MR)                 CS000012849
0500206377ATCH BUNYAPRASIT (MR)              AS000012856
0500207201SUPACHAI APICHAIDEJUDOM (MR)       CS000012864
2200608096THAI DONG RONG ENTERPRISE CO.,LTD. AC000012872
0500606379THAI DONG RONG ENTERPRISE CO.,LTD. CS000012872
0500806380WANG,KUO-TSAI (MR)                 AS000012880
0100808097LO,WEN-HUA (MR)                    AC000012906
0500306382LO,WEN-HUA (MR)                    AS000012906
0500706384NIWAT KHAMKAEW (MR)                AS000012922
0500406387EGACHAI KROOCHAOPANY (MR)          CS000012955
0500606388LIN,CHIA-CHIEN (MS)                AS000012963
0500106390LEE,CHI-CHUN (MR)                  AS000012989
0500306391WANG,CHEN-CHUEH (MR)               CS000012997
0500706393MANWIT  PUCHITKANONT (MR)          AS000013011
0100108098MAXTECH MACHINERY CO.,LTD.         CC000013029
0500906394MAXTECH MACHINERY CO.,LTD.         AS000013029
0100508100CHEN,FENG-WU (MR)                  AC000013037
0500206395CHEN,FENG-WU (MR)                  AS000013037
0500406396JACKSON ELECTRO(T)CO               AS000013045
0580400097JACKSON ELECTRO(T)CO               AS000013045
0500409710WANG,WAN-LING(MR)                  AS000013054
0570401571WANG,WAN-LING(MR)                  AS000013054
0500609398LIOU,WEN-CIE(MR)                   AS000013055
0570301570LIOU,WEN-CIE(MR)                   AS000013055
0500110081YU LIU,MEI-ZEU(MRS)                AS000013056
0570301587YU LIU,MEI-ZEU(MRS)                AS000013056
0100708101FU THAI CONSTRUCTION               CC000013060
0500806398FU THAI CONSTRUCTION               CS000013060
0500106399HUANG,HAN-HUEI (MR)                CS000013078
0500306400ELAINE R. CUADRA                   CS000013086
0500506401SUWANNA PEAWCHUEN                  CS000013094
0100808106THONGBAI & OU YANG                 CC000013102
0500706402THONGBAI & OU YANG                 CS000013102
0100608105GRAND HOME CO.,LTD.                CC000013110
0500906403GRAND HOME CO.,LTD.                CS000013110
0100908102FUNG,KA-LOK (MR)                   AC000013128
0500206404FUNG,KA-LOK (MR)                   AS000013128
0570100354HSU,SUNG-LIN (MR)                  CS000013151
0500106408ORANICH SAE-ZHANG                  CS000013169
0590506410PHEJCHAREE WANSUTTHIWAT (MRS)      CS000013185
0100508109CHANG,HUNG-JIUN (MR)               CC000013193
0500706411CHANG,HUNG-JIUN (MR)               AS000013193
0500906412HUANG,KUN-CHENG (MR)               AS000013201
0500406414NORTHWARD INT'L CO.,LTD.           CS000013227
0580100128NORTHWARD INT'L CO.,LTD.           CS000013227
2200308108LINKWORLD ELECTRONIC(TH)CO.,LTD.   AC000013235
0500606415LINKWORLD ELECTRONIC(TH)CO.,LTD.   AS000013235
0580600099LINKWORLD ELECTRONIC(TH)CO.,LTD.   AS000013235
0500608965CHEN,LIANG-YU (MISS)               AS000013243
0500806416CHEN,LIANG-YU (MISS)               CS000013243
0100208112FONG,CHONG(MR)                     CC000013292
0500206422CHENG LAI,CHIU-YUN (MRS)           CS000013300
0500606424YOW LING ENT.CO.,LTD               AS000013326
0500806425WU,LONG-HUI (MR)                   AS000013334
0100108116WU CHEN,LI-HSUEH (MRS)             AC000013342
0500106426WU CHEN,LI-HSUEH (MRS)             AS000013342
0570300400WU CHEN,LI-HSUEH (MRS)             AS000013342
0100608114GRANDEUR FIBER CO.,LTD.            AC000013359
0500306427GRANDEUR FIBER CO.,LTD.            AS000013359
0580300131GRANDEUR FIBER CO.,LTD.            AS000013359
0500506428LAI,HSIEN-MO (MR)                  AS000013367
0570800324LAI,HSIEN-MO (MR)                  AS000013367
0500706429PHITAKTHAI TRADING&EXPORT L.P.     CS000013375
0100408113LIN,CHENG-HUI (MR)                 AC000013391
0500206431LIN,CHENG-HUI (MR)                 AS000013391
0500606433WORAWUT LERTPREECHA                AS000013417
0500806434SUPAVADEE PITSWONG (MISS)          AS000013425
0500106435SUTHAP ROONGOTHAI (MR)             AS000013433
0100508217LU,TSENG SHIOU -LAN (MRS)          AC000013441
0500306436LU,TSENG SHIOU -LAN (MRS)          AS000013441
0500706438PAISAL PONGMARKSUK                 AS000013466
0500906439HO,KING-HONG (MR)                  AS000013474
0570100024HO,KING-HONG (MR)                  AS000013474
0500206440LAI,YUNG-SHENG (MR)                CS000013482
0500406441HSU,SHENG-I (MR)                   CS000013490
0570500417HSU,SHENG-I (MR)                   CS000013490
0100808124PEI,YU-PING (MS)                   AC000013516
0500106444LIU,C.H. (MR)                      CS000013524
0500506446WANG,CHANG CHII-FEN (MRS)          AS000013540
0500706447AROON VICHITKKULWONGSA(OR) PUNNAMASCS000013557
0100308117TSAI,YU-SHENG (MR)                 AC000013565
0500906448TSAI,YU-SHENG (MR)                 CS000013565
0500806452LIGI INT'L CO.,LTD                 AS000013607
0580800459LIGI INT'L CO.,LTD                 AS000013607
0100208121WANG,TZU-CHING (MRS)               AC000013615
0500106453WANG,TZU-CHING (MRS)               AS000013615
0100408122CHEN,CHAO-WEN (MR)                 CC000013623
0500306454CHEN,CHAO-WEN (MR)                 CS000013623
0100608123LIN,CHIN-YI(MR)                    CC000013631
0500506455LIN,CHIN-YI(MR)                    AS000013631
0500406459TEERAWAT PHLAOCHAN (MR)            AS000013672
0500806461ACHAREEYA SIANGLIW (MISS)          CS000013698
0500306463PAKYADA KULLAPATNATACHA (MISS)     AS000013714
2200108125UNLIMITED EXPRESS (TH) CORP.,LTD.  AC000013748
0500906466UNLIMITED EXPRESS (TH) CORP.,LTD.  CS000013748
0100908129PAIRUCH VORAPHANI (MR)             AC000013755
0500206467PAIRUCH VORAPHANI (MR)             AS000013755
0500606469CHAROEN KRUNGTHAI CO.,LTD.         CS000013789
0590106471KAEWKARN TONG-ON (MISS)            AS000013805
0100508127YANG,CHI-YING (MISS)               AC000013813
0500306472YANG,CHI-YING (MISS)               AS000013813
0500506473CHEN SHEN,WON-CHIN (MS)            AS000013821
0500706474YING YAI SHOES INT'L CO.,LTD.      CS000013839
0500906475PRASARN SRISUWAN(MR)               CS000013847
0500206476ZHANG XIAOLU                       CS000013854
0500108266LU KUO,KUEI-CHEN (MRS)             CS000013862
0570700118LU KUO,KUEI-CHEN (MRS)             CS000013862
0100208130SUNRAIN INT'L(THAILAND)CO.,LTD.    CC000013870
0500606478SUNRAIN INT'L(THAILAND)CO.,LTD.    CS000013870
0580600177SUNRAIN INT'L(THAILAND)CO.,LTD.    CS000013870
0500306481TSAI,CHENG-FU (MR)                 AS000013904
2200308135TUNTEX TEXTILE(THAILAND)CO.,LTD.   AC000013912
0500506482TUNTEX TEXTILE(THAILAND)CO.,LTD.   FS000013912
0580900299TUNTEX TEXTILE(THAILAND)CO.,LTD.   AS000013912
0500706483HOME WORLD INDUSTRY CO.,LTD.       AS000013920
0500906484CHEN,JUNG-HAO (MR)                 AS000013938
0570700124CHEN,JUNG-HAO (MR)                 AS000013938
0500206485SATHAPORN WONGARUNVO               AS000013946
0500406486THANIT PHOOPHADPHLOI (MR)          CS000013953
0500606487WANG YUEN INTERNATIONAL CO.,LTD.   CS000013961
0580700122WANG YUEN INTERNATIONAL CO.,LTD.   CS000013961
0100808133MINAMOTO CO.,LTD.                  CC000013987
0500106489MINAMOTO CO.,LTD.                  CS000013987
0500506491LIU,NAN-KUANG (MR)                 AS000014001
0100708137HSIEH,WEN-KWAN(MR)                 AC000014027
0500906493HSIEH,WEN-KWAN(MR)                 AS000014027
0500206494LIN,CHIEN-TZU (MR)                 AS000014035
0500606496LIN,CHI-DA (MR)                    CS000014050
0500806497SUTHUT SUTHUMBUDD (MR)             CS000014068
0500909994SUTHUT SUTHUMBUDD (MR)             AS000014068
0500106498CHEN,WEI-YUNG (MR)                 CS000014076
0100408140YONGFA INDUSTRIAL CORP.,LTD.       CC000014092
2200508388YONGFA INDUSTRIAL CORP.,LTD.       AC000014092
0500506500YONGFA INDUSTRIAL CORP.,LTD.       CS000014092
0580400270YONGFA INDUSTRIAL CORP.,LTD.       AS000014092
0500706501PIANGJAI  RA-CHOT                  CS000014100
0500906502CHANG,WEI-JEN (MR)                 CS000014118
0570400586CHANG,WEI-JEN (MR)                 AS000014118
0500206503HUANG,YIU TZU-CHUN (MRS)           CS000014126
0500406504YU.MEI-HUEI (MISS)                 AS000014134
0500606505THAVEESAK PENSUTH (MR)             AS000014142
0100108152CHUEH,TSAI-HSIA (MISS)             AC000014167
0500106507CHUEH,TSAI-HSIA (MISS)             CS000014167
0100608497WALAIPORN CHAIRATTANATHANANON(MISS)AC000014175
0100108143ORIENTAL CERATECH CO.,LTD.         CC000014183
0500506509ORIENTAL CERATECH CO.,LTD.         CS000014183
0500706510PONGSAK KITTIWARODOM (MR)          CS000014191
0100308144CHEN,KUAN-JU (MR)                  CC000014209
0500906511CHEN,KUAN-JU (MR)                  CS000014209
0100508145PACIFIC SUPREME (THAILAND) CO.,LTD.AC000014225
0500406513PACIFIC SUPREME (THAILAND) CO.,LTD.AS000014225
0580500148PACIFIC SUPREME (THAILAND) CO.,LTD.AS000014225
0100108571CHANG,LAN-WAN (MISS)               CC000014233
0500606514CHANG,LAN-WAN (MISS)               CS000014233
0100908147ORAWAN ARPHORNSUWAN (MRS)          AC000014241
0500806515ORAWAN ARPHORNSUWAN (MRS)          AS000014241
0100708601WEN,HUNG-PU (MR)                   AC000014266
0500306517WEN,HUNG-PU (MR)                   CS000014266
0570101344WEN,HUNG-PU (MR)                   AS000014266
0500506518PORNTAP LEERATANAKUL (MR)          CS000014274
0100408149MAXIMUM POTENTIAL LIMITED          AC000014282
0500706519MAXIMUM POTENTIAL LIMITED          CS000014282
0100608150SUCCESSWAY HOLDINGS LIMITED        CC000014290
0500906520SUCCESSWAY HOLDINGS LIMITED        CS000014290
0590206521BORRERAK CHAROENKIJTHAVEE (MR)     CS000014308
0500406522KAO,MING-CHIH (MR)                 CS000014316
0570400962KAO,MING-CHIH (MR)                 CS000014316
0500606523LIN,WU CHEN-FEN (MRS)              AS000014324
0570601035LIN,WU CHEN-FEN (MRS)              AS000014324
0500106525CHIU,CHIU-HSIEN (MR)               AS000014340
0500306526PIPAT TEECHAMONGKOLC               AS000014357
0500506527SHU,SHUI-LUNG (MR)                 AS000014365
0100208148HUANG,YUAN-CHIAO (MR)              AC000014373
0500706528HUANG,YUAN-CHIAO (MR)              AS000014373
0500906529NANTANA SINGTO                     CS000014381
0100808151JINTAI CHITUAN (THAILAND) CO.,LTD. AC000014399
0500206530JINTAI CHITUAN (THAILAND) CO.,LTD. AS000014399
0580201135JINTAI CHITUAN (THAILAND) CO.,LTD. AS000014399
0500406531LIANG,CHI-YEH (MR)                 AS000014407
0500606532HUANG,HSING-HSIN (MR)              AS000014415
0500806533PAN,YING-JEN (MS)                  AS000014423
0100808376SUTHIPORN SAJJAPANROJ (MISS)       CC000014431
0500306535CHEN,CHAO-MING (MR)                AS000014449
0500506536ROYAL MASTER CO.,LTD.              CS000014456
0580800188ROYAL MASTER CO.,LTD.              CS000014456
0100308153CHEN,KUO-HSIEN (MR)                CC000014464
0500706537CHEN,KUO-HSIEN (MR)                AS000014464
0100408158TEAM TEC WORLDWIDE PCL.            AC000014472
0500906538TEAM TEC WORLDWIDE PCL.            AS000014472
2200508154SIAM MODERN PALM CO.,LTD.          AC000014498
0500406540SIAM MODERN PALM CO.,LTD.          AS000014498
0100508172PACIFIC-THAI ELECTRIC WIRE&CABLE COAC000014514
0500806542PACIFIC-THAI ELECTRIC WIRE&CABLE COAS000014514
0580601680PACIFIC-THAI ELECTRIC WIRE&CABLE COAS000014514
0500106543LIN,MIN-CHENG (MR)                 AS000014522
0500306544SHIH,HUI-NEN (MR)                  AS000014530
0100708155LEE,KIN-TAR (MR)                   AC000014548
0500506545LEE,KIN-TAR (MR)                   CS000014548
0500207841SUPHANEE THAMROMDEE (MRS)          CS000014555
0500706546SUPHANEE THAMROMDEE (MRS)          CS000014555
0100808412NALINEE ARDJIMANON (MISS)          CC000014563
0590206547NALINEE ARDJIMANON (MISS)          CS000014563
0500806548HSIEH,PEI-WU (MR)                  AS000014571
0570700287HSIEH,PEI-WU (MR)                  AS000014571
0500406549KITTIPHONG HUNSANUVA               AS000014589
2200208157LIANGCHI DEVELOPMENT CO.,LTD.      AC000014597
0500606550LIANGCHI DEVELOPMENT CO.,LTD.      AS000014597
0100608159WIN THAI STEEL CO.,LTD.            CC000014605
0500806551WIN THAI STEEL CO.,LTD.            AS000014605
0500106552SUPACHAI TAWANVANIT                CS000014613
0100808160WONG,SHENG-YI(AND)CHANG,KANG- (MR) CC000014621
0500506554TU,KAI-SHENG (MR)                  AS000014639
0570900396TU,KAI-SHENG (MR)                  AS000014639
0100108161AWG(THAILAND)CO.,LTD               AC000014647
0500706555AWG(THAILAND)CO.,LTD               AS000014647
0100308162THAI-I ENTERPRISE CO.,LTD          AC000014662
0500206557THAI-I ENTERPRISE CO.,LTD          AS000014662
0500406558CHU,PING-CHUN (MR)                 AS000014670
01005081633 S THAI DOLL CO.,LTD.             AC000014688
05006065593 S THAI DOLL CO.,LTD.             AS000014688
05803002213 S THAI DOLL CO.,LTD.             AS000014688
0100708164YU,WEN-CHUN (MR)                   AC000014696
0500806560YU,WEN-CHUN (MR)                   CS000014696
0100108165JEN JENWIPAKUL (MR)                CC000014704
0500306562LEE,SHI-HUI (MISS)                 CS000014712
0500506563HSU,FANG-RON (MR)                  AS000014720
0500706564YU TSEN,MAN-MEI (MRS)              CS000014738
0100208166FONG SHANN PRINTING CO.,LTD.       CC000014746
0500906565FONG SHANN PRINTING CO.,LTD.       CS000014746
2200408167ASIA SPORTS GOODS(THAILAND)CO.,LTD.AC000014753
0500206566ASIA SPORTS GOODS(THAILAND)CO.,LTD.AS000014753
0580600139ASIA SPORTS GOODS(THAILAND)CO.,LTD.AS000014753
0120800001TUNTEX DISTINCT CORPORATION        CC000014761
0540500008TUNTEX DISTINCT CORPORATION        AS000014761
0570500223TUNTEX DISTINCT CORPORATION        AS000014761
01008081693 C AUTOMATIC TECHNO               CC000014779
05006065683 C AUTOMATIC TECHNO               AS000014779
0500806569TSAI,WU-TIEN (MR)                  AS000014787
0570900143TSAI,WU-TIEN (MR)                  AS000014787
0500106570TSAI,WEN-SHUN (MR)                 AS000014795
0570100144TSAI,WEN-SHUN (MR)                 AS000014795
0500306571TSAI,WU-YING (MR)                  AS000014803
0570200145TSAI,WU-YING (MR)                  AS000014803
0500506572PICHETH PIYAPAN(MR)                CS000014811
0500206575THANCHANOK RUJINANTHAVATE (MISS)   CS000014845
0500406576CHINTARAT PUMIDIST (MISS)          CS000014852
0500606577CHANTAWADEE WONG                   CS000014860
0100108170CHENG MEY INT'L DEV.               AC000014878
0500806578CHENG MEY INT'L DEV.               AS000014878
0500106579WANG,YEH-CHIN (MISS)               CS000014886
0100208175WEI,YI-CHIEN (MR)                  CC000014894
0500306580WEI,YI-CHIEN (MR)                  CS000014894
0100308171WANG,PO-CHIEN (MR)                 AC000014902
0500506581WANG,PO-CHIEN (MR)                 AS000014902
0500206584FORMING & MODIFIED                 CS000014936
0500406585OCEAN LINK MARINE & AGENCY CO.,LTD.AS000014944
0580100210OCEAN LINK MARINE & AGENCY CO.,LTD.AS000014944
0500606586FU THAI HOLDINGS CO.,LTD.          CS000014951
0500806587LIN,MEI-HUI (MISS)                 CS000014969
0100408176LEE LIN CO.,LTD.                   AC000014977
0500106588LEE LIN CO.,LTD.                   CS000014977
0580700262LEE LIN CO.,LTD.                   CS000014977
0500506590KANGWAN SRITHANESPHOKAI (MR)       CS000014993
0500706591CHUANG,CHEN-CHIA (MR)              AS000015008
0500906592CHUANG,TIEN-WANG (MR)              AS000015016
0100608758LM IMPORT-EXPORT LIMITED PART.     AC000015024
0500206593LM IMPORT-EXPORT LIMITED PART.     AS000015024
0580100209LM IMPORT-EXPORT LIMITED PART.     AS000015024
0500606595CHEN WU,CHING-SHIOU (MRS)          CS000015040
2200108178BANGKOK DIECASTING AND INJECTION COCC000015057
0580700314BANGKOK DIECASTING AND INJECTION COCS000015057
0500706992SECTOR COMPUTERS CO.,LTD.          CS000015065
0580500176SECTOR COMPUTERS CO.,LTD.          CS000015065
0500706600CHEN ROY (MR)                      AS000015099
0100608177UNITED FOUR INT'L CO.,LTD.         AC000015107
0500906601UNITED FOUR INT'L CO.,LTD.         CS000015107
0500206602CHIANG,NAI-HUI(OR)OU,YUN-TONG(MR,MRCS000015115
0570500160CHIANG,NAI-HUI(OR)OU,YUN-TONG(MR,MRAS000015115
0570200212LEE,DER-SHENG (MR)                 AS000015123
0500606604TONG THAI MACHINERY                CS000015131
0500806605ROYAL MASTER (THAILAND) CO.,LTD.   CS000015149
0580700178ROYAL MASTER (THAILAND) CO.,LTD.   CS000015149
0500106606HSIEH,KUNG-CHANG (MR)              CS000015156
0100508181YU WANG,KUAN-LIN(MRS)              AC000015172
0500506608YU WANG,KUAN-LIN(MRS)              AS000015172
2200908183C.S.PISTON (THAILAND) CO.,LTD.     AC000015198
0500906610C.S.PISTON (THAILAND) CO.,LTD.     AS000015198
0580300191C.S.PISTON (THAILAND) CO.,LTD.     AS000015198
0500107872WU,LO MEI-HUAN (MRS)               AS000016659
0100508528LIN,PEN-WAN (MR)                   CC000016758
0570900666CHEN,LIEN-FANG (MR)                AS000016949
0100309194CHIA PAO METAL CO.,LTD             AC000030830
0500409433CHIA PAO METAL CO.,LTD             AS000030830
0580501607CHIA PAO METAL CO.,LTD             AS000030830
0100708448LU,KUN-LU (MR)                     AC000036845
0500807258LU,KUN-LU (MR)                     AS000036845
0570200668LU,KUN-LU (MR)                     AS000036845
0500807789LIN,THA-AN (MR)                    CS000100005
0570701885LIN,THA-AN (MR)                    AS000100005
0500107790STELLA YI-HUA LIN (MRS)            CS000100006
0100805293SAMPAN PONGSAKSERIKUL (MR)         CC000100008
0500900820SAMPAN PONGSAKSERIKUL (MR)         CS000100008
2300606104LAM YONG L.P.                      AC000100164
1200806128ANGLO-SIAM SEAFOODS LTD.           CC000100180
1300506213KANIT ENGINEERING CORP.,LTD        AC000100248
0510103272KANIT ENGINEERING CORP.,LTD        AS000100248
2300207641T.N.G.(TAINAN)CO.,LTD.             CC000100271
0580800541T.N.G.(TAINAN)CO.,LTD.             CS000100271
2300806240GEM PLAZA L.P.                     AC000100289
0500808067SIAM CHOTIGWARODOM (MR)            AS000100290
1200206287BANGKOK ELASTIC CO.,LTD.           AC000100339
0100408014CHIU,MEI-HUA (MISS)                AC000100362
0500606064CHIU,MEI-HUA (MISS)                AS000100362
0500706065THANAKORN IAMSIRI (MR)             CS000100370
2300206479UNG HA HUAD                        CC000100479
0100306520SIN SANGUAN WAREHOUSE CO.,LTD.     CC000100503
0500806066CHIANG,CHIA-SHEN (MR)              AS000100537
2300706575THAI LIH DAR ENTERPRISE CO.,LTD.   CC000100578
0570201560YANG,CHENG-TAI(MR)                 CS000100648
0570701556HUANG,PAO-JEN(MR)                  AS000100707
0100605800WATANAHSIN ENTERPRISE CO.,LTD.     AC000100750
0510703066WATANAHSIN ENTERPRISE CO.,LTD.     AS000100750
0100807962WU,HSIAO-CHUANG (MR)               CC000100883
0590906067WU,HSIAO-CHUANG (MR)               CS000100883
0570500824WU,HSIAO-CHUANG (MR)               CS000100883
0100305934SILP VIVATHANA PHANICH             AC000100917
1300205963ROENGSAK CHINCHOTVARANONT(MR)      AC000100941
0100406023SAKDA & NISARAT (MR,MRS)           CC000101063
0500106068HSU,PAO-LU (MR)                    CS000101097
0570600692HSU,PAO-LU (MR)                    CS000101097
1200406103PRAI SAGUANPAN LIMITED PARTNERSHIP CC000101188
0580900189PRAI SAGUANPAN LIMITED PARTNERSHIP CS000101188
0100506126MANGKORN SAE TANG (MR)             CC000101253
0500405159MANGKORN SAE TANG (MR)             AS000101253
0100607952MING HEN (THAILAND) CO.,LTD.       AC000101469
0500206069MING HEN (THAILAND) CO.,LTD.       AS000101469
0580700051MING HEN (THAILAND) CO.,LTD.       AS000101469
0100906336HOCK CHIANG LTD.PART               CC000101501
0100106342LIN,CHI-HSION (MR)                 CC000101535
0570800126LEE,I-REN (MR)                     AS000101600
0500406071TEERAWAT GANJANARAK (MR)           CS000101626
2300206463PITI JONGPUTISIRI (MR)             AC000101634
0100506471LOY LERT CO.,LTD.                  CC000101659
0100906435THAI K K INDUSTRY CO.,LTD.         AC000101774
0500406621THAI K K INDUSTRY CO.,LTD.         CS000101774
0100506446TAFU WOOD INDUSTRY CO.,LTD.        AC000101832
0500506072WEN,MEI-LIEN (MISS)                AS000101840
0510402902CHU,CHET-YET (MR)                  AS000101899
0100306410TANG ENG IRON WORKS                AC000101915
0100106411BOONCHAI APINANT (MR)              CC000101923
0500406270ATICHA HARNTHAM (MRS)              CS000101980
0510502138REX TRADING LTD,PART               AS000102145
0100805658THAI DEVELOPMENT PAPER CO.,LTD.    AC000102202
0100606362GEM PLAZA LAPIDARY&EXPORT LTD.PART.AC000102319
0100806380MUANG THONG ALUMINIUM              AC000102368
0100508334Q & Q HOLDING CO.,LTD.             AC000102434
0580700631Q & Q HOLDING CO.,LTD.             AS000102434
0100107954LEE MING ENTERPRISE CO.,LTD.       AC000102467
0500706074LEE MING ENTERPRISE CO.,LTD.       AS000102467
0580800052LEE MING ENTERPRISE CO.,LTD.       AS000102467
0100406216MONTRI UTISANONT(MR)               AC000102491
0510901773MONTRI UTISANONT(MR)               AS000102491
0500609278LIU,LIANG-CHING (MR)               AS000103010
0570700488LIU,LIANG-CHING (MR)               AS000103010
0500906076KAO,TZU-PIN (MR)                   AS000103036
0100206439TISCO FINANCE PCL.                 CC000103242
0100507955INTEGRATED PRODUCE                 AC000103853
0500806078INTEGRATED PRODUCE                 AS000103853
0500406080TENONG (THAILAND) CO.,LTD.         AS000104984
1200106785CHEMMART ENTERPRISE(TH)CO.,LTD.    CC000105171
0580900441CHEMMART ENTERPRISE(TH)CO.,LTD.    CS000105171
0100808394COLLINS (THAI) CO.,LTD.            CC000105213
0500705455COLLINS (THAI) CO.,LTD.            AS000105213
0580400159COLLINS (THAI) CO.,LTD.            AS000105213
0500303534YEH,CHUAN-SAN (MR)                 AS000105239
0100107963HSU,CHIN-CHAO(OR)WU,CHING-CHIUNG(MRAC000105247
0500506081HSU,CHIN-CHAO(OR)WU,CHING-CHIUNG(MRAS000105247
2200406796HER EY CO.,LTD.                    AC000105288
0100606798THAI JIA NAI CO.LTD.               AC000105312
0500703547LIN,TAI-HWEI (MR)                  CS000105379
2200706810LYNNS TECHNOLOGIES CO.,LTD.        CC000105460
0500403575LYNNS TECHNOLOGIES CO.,LTD.        CS000105460
0100806811CHUTCHAI CHARTTRAKUL(MR)           AC000105478
0100806765TANG ENG IRON WORKS.               AC000105551
0100806820V.I.P.BEAUTY TRADING               CC000105577
0100906821BURESA TECHNOLOGY CO.,LTD.         CC000105585
0500503581HSU,SU-HSIAO (MR)                  AS000105619
0100306832KENNETH S.TZOU                     AC000105635
0100806838P.O.C.(THAILAND)CO.                CC000105692
0500605317P.O.C.(THAILAND)CO.                CS000105692
0100406769KINGCHAIN INDUSTRIAL CO.,LTD.      CC000105759
0500403571KINGCHAIN INDUSTRIAL CO.,LTD.      CS000105759
0500503631KUNNAN (THAILAND)LTD               AS000105783
0500303633T.K.C. INTERNATIONAL CO.,LTD.      AS000105825
0100206857B.V.P.COMMERCIAL LIMITED PART.     AC000105833
0100706863EVER WINNER INDUSTRY(THAILAND)CO.,LAC000105882
0500603650LIN,HSIEN-FU (MR)                  AS000105908
0100306867LU,PANG-CHOU (MR)                  CC000105924
0500303714LU,PANG-CHOU (MR)                  AS000105924
0500703664KUO,YU-CHIANG (MR)                 CS000105940
0100106875YANG,CHING-MING (MR)               AC000105973
0500503949YANG,CHING-MING (MR)               AS000105973
0500207678LIU,HSIANG-FA (MR)                 CS000106005
2200706881NICHOW KIYO CO.LTD.                AC000106039
0500403921YANG,CHUNG-SHIEN (MR)              AS000106062
2200906892PIIN SHIANG CO.,LTD.               CC000106104
0500703695PIIN SHIANG CO.,LTD.               CS000106104
0100506896SUNNY FOOTWEAR (THAILAND) LTD.     AC000106146
0500104933SUNNY FOOTWEAR (THAILAND) LTD.     AS000106146
0500204083CHAO,HSIU-HWA (MRS)                AS000106161
0100306904HONG MAO BIOCHEMICALS CO.,LTD.     AC000106195
0500103836HONG MAO BIOCHEMICALS CO.,LTD.     AS000106195
0100506905CHIA YEH ENTERPRISE CO.,LTD.       AC000106203
0500603959CHIA YEH ENTERPRISE CO.,LTD.       AS000106203
0500703718SHEN,CHI-CHUN (MR)                 AS000106211
0100706917CHEN,CHIA-MING  (MR)               AC000106286
0100906919KUO,FANG-CHIH (MR)                 CC000106310
0500406432KUO,FANG-CHIH (MR)                 AS000106310
0100906920SHIUE,MIN-CHEN (MR)                AC000106328
0100406923MULTI LEATHERWEAR (TH) CORP.,LTD.  AC000106336
0580100301MULTI LEATHERWEAR (TH) CORP.,LTD.  CS000106336
0100706926FORTUNE LEATHERGOODS               AC000106351
0500603753FORTUNE LEATHERGOODS               AS000106351
2200806927YUAN HUANG (THAILAND) CO.,LTD.     AC000106369
0500603757YUAN HUANG (THAILAND) CO.,LTD.     AS000106369
0580500032YUAN HUANG (THAILAND) CO.,LTD.     AS000106369
0100906928CHEN LEE,SU-YUNG (MRS)             CC000106377
0500403782CHEN LEE,SU-YUNG (MRS)             CS000106377
0100506933MING CHAO INDUSTRIAL(TH)CO.,LTD.   AC000106401
0500606220MING CHAO INDUSTRIAL(TH)CO.,LTD.   AS000106401
0580600080MING CHAO INDUSTRIAL(TH)CO.,LTD.   AS000106401
0100306931KAO SU PACKING INDUSTRY CO.,LTD.   AC000106419
0500606002KAO SU PACKING INDUSTRY CO.,LTD.   AS000106419
2100906937WELFINE INDUSTRY CO.,LTD.          AC000106435
0100306939PORNCHAI BROTHERS (1988) CO.,LTD.  AC000106443
0100906946CASDAY (THAILAND) CO.,LTD.         AC000106500
0100706944S.THAICHAROENPORN CO               CC000106518
2200406949THAI IDEAL RATTAN CO.,LTD.         AC000106534
0500304287GE FONG PRECISION IN               AS000106542
0500603834TUNG SHENG ENT.CO.                 AS000106559
0100306957CHEN,WU SHU-MIN (MRS)              AC000106575
0500104631CHEN,WU SHU-MIN (MRS)              AS000106575
0570800219CHEN,WU SHU-MIN (MRS)              AS000106575
0100806963D.H.RUBBER                         CC000106625
0100106965ASADA LEASING CO.LTD               CC000106641
1200506986SHEICO GROUP CO.,LTD.              AC000106740
0580600153SHEICO GROUP CO.,LTD.              CS000106740
0500404072SUN MOON STAR CO.LTD               CS000106773
0570301561HSU,SUNG-HUI(MR)                   AS000106774
0100806998DECOY PLANT THAILAND CO.LTD.       AC000106807
0100906999SIAM CRAYONS BOO BO                CC000106815
0199999999DORMANT "A" A/C                    AC000106831
2200507015EUROPEAN SPORTS ENTERPRISE CO.,LTD.AC000106930
0580600009EUROPEAN SPORTS ENTERPRISE CO.,LTD.AS000106930
0100707017VIVATPRASERT CO.,LTD               CC000106948
1300507755LIN,HSI-HUI (MR)                   CC000106955
0570500587LIN,HSI-HUI (MR)                   AS000106955
1300407023CHUANG,SHOU-TSAI (MR)              AC000106963
0100807027GEN PAO INDUSTRY                   AC000106997
0500703987KUO,JEN-CHE (MR)                   AS000107029
2200907037THAI FIRST ENAMEL CO.,LTD.         AC000107045
0500404026THAI FIRST ENAMEL CO.,LTD.         CS000107045
0500410078THAI FIRST ENAMEL CO.,LTD.         AS000107045
0580500019THAI FIRST ENAMEL CO.,LTD.         AS000107045
0500904209KEMMER UMBRELLA CO.                AS000107086
2200607042CIVICA INDUSTRIES CO.,LTD.         AC000107094
0500305326CIVICA INDUSTRIES CO.,LTD.         AS000107094
0580600135CIVICA INDUSTRIES CO.,LTD.         AS000107094
2200707043NEW UNIT ENTERPRISE CO.,LTD.       AC000107102
0500406612NEW UNIT ENTERPRISE CO.,LTD.       AS000107102
0580100658NEW UNIT ENTERPRISE CO.,LTD.       AS000107102
0100307048SIAM GARDEN SPORT CO.,LTD.         CC000107128
0100807053HSIEH,YAO-CHIN(MR)                 AC000107177
2200907055ALAW INDUSTRIAL CO.,LTD.           AC000107193
0500408155ALAW INDUSTRIAL CO.,LTD.           AS000107193
0580900166ALAW INDUSTRIAL CO.,LTD.           AS000107193
0500304062T.P.SPORT SHOE CO.,LTD.            AS000107219
2200807059M.R.I. CO.,LTD.                    AC000107227
0500205353M.R.I. CO.,LTD.                    AS000107227
0500908234M.R.I. CO.,LTD.                    AS000107227
0580400255M.R.I. CO.,LTD.                    AS000107227
0100507077LIN,YUN-TUAN (MR)                  AC000107268
0100607070SANG THAI ELECTRIC                 AC000107276
0100807071A-TON (THAILAND) CO.               AC000107284
0100307083ETERNAL PETROCHEMICAL              AC000107342
0100607086SIANFAR LIMITED PARTNERSHIP        AC000107375
0500304097THAI FARM TOWN CO.,LTD.            AS000107383
0100907091CHANG,MING-CHEN (MR)               AC000107391
0500305119CHANG,MING-CHEN (MR)               AS000107391
0100507060SHIH,FANG-CHOU                     AC000107409
0500704845TSAI,TZU-CHIEN (MR)                AS000107508
0500504847ACUTECH CO.,LTD.                   AS000107524
0500304849CHEUNG,PIT-LIANG (MR)              AS000107540
0100907436THAI CHI FOOTWEAR CO.,LTD.         AC000107565
0500904851THAI CHI FOOTWEAR CO.,LTD.         AS000107565
0500404853HUANG,YANG-SHENG (MR)              AS000107581
0500804857PHAIBOON BOONCHO (MR)              AS000107623
0500604994JUANG,JIUNN-SHYONG (MR)            AS000107649
0570701430JUANG,JIUNN-SHYONG (MR)            AS000107649
0100907928CHALERMPHON WANGWITTAYA (MR)       AC000107656
0500904860CHALERMPHON WANGWITTAYA (MR)       AS000107656
0500104861PORNSAK WATTAWANICHK (MR)          AS000107664
0500904995CHEN,JIH-LANG (MR)                 AS000107672
0500204864CHANG,YUAN-CHIH (MR)               CS000107698
0100307443MING WEI CO.,LTD.                  AC000107706
0500504865MING WEI CO.,LTD.                  AS000107706
0500304867YEH,CHUNG-MING (MR)                AS000107722
0500904869KHONG SERN MIAO                    AS000107748
0100907445MODERN DYESTUFFS&PIGMENTS CO.,LTD. AC000107771
0500704872MODERN DYESTUFFS&PIGMENTS CO.,LTD. AS000107771
0580200157MODERN DYESTUFFS&PIGMENTS CO.,LTD. AS000107771
0100607543WU,WEI-CHEN (MR)                   AC000107821
0500604877WU,WEI-CHEN (MR)                   AS000107821
0570300214WU,WEI-CHEN (MR)                   CS000107821
0500404997LIN,CHEN-HSI (MR)                  AS000107839
0500104879LIN,LUNG-SHENG (MR)                AS000107847
0500704881CHEN,WEI-CHA (MR)                  AS000107862
0500204882CHEN,TSAO YUEH-NU                  AS000107870
0500504883WU,CHEN HUEI-CHU (MRS)             AS000107888
0500904887HSU,TE-HSI (MR)                    AS000107920
0500104888HUNG,WEN-CHANG (MR)                AS000107938
0500404889LIN,CHIH-MING (MR)                 CS000107946
0500504892LEE,YI-JUNG (MR)                   AS000107979
0500804893NISANAT JUTAVIRIYA (MR)            CS000107987
0500304894ANCHALEE THAIPHIROM (MISS)         AS000107995
0500104897SAIYUD EAMBOON (MRS)               AS000108027
0100207458REQUA (THAILAND) CO.,LTD.          CC000108068
0500304903HUNG,TSUNG-SHOU (MR)               AS000108084
1200607462NAMCHOW (THAILAND) LTD.            AC000108118
0500104906NAMCHOW (THAILAND) LTD.            AS000108118
0580500006NAMCHOW (THAILAND) LTD.            AS000108118
0500704908WANG,CHIAO-HUI (MISS)              CS000108134
0500504910HUANG,CHING-FANG (MR)              CS000108159
0500804911WEN,WEI-MO (MR)                    AS000108167
0500604913HSIUNG,CHEN-HUEI(MR)               AS000108183
0500904914HSIAO,WEN-CHIN                     AS000108191
0500104915WENG,CHUN-HAO (MR)                 AS000108209
0500504919SURAT PONPARLAT.                   CS000108241
0500804920CHAIYAN SITTHIUDOMSU               CS000108258
0500604922LO,CHENG-CHI (MR)                  CS000108274
0100807496CHEN,CHANG-CHIN (MR)               CC000108282
0500904932CHEN,CHANG-CHIN (MR)               AS000108282
0570701473CHEN,CHANG-CHIN (MR)               AS000108282
0500204999VILAI TRANCHINDAVONG (MISS)        AS000108290
0500404934CHANG,CHIN-SHENG (MR)              AS000108308
0500405078SU,CHIN-KUO (MR)                   AS000108316
0570501091SU,CHIN-KUO (MR)                   AS000108316
2300507468LIANFAH CO.,LTD.                   AC000108324
0500204936LIANFAH CO.,LTD.                   AS000108324
0500504937HUANG,CHAO-TSAN (MR)               AS000108332
0100607471THAI METAL PACK CO.                CC000108340
0500504938THAI METAL PACK CO.                CS000108340
1300707693CHOU,CHAN-FU (MR)                  CC000108357
0500304939CHOU,CHAN-FU (MR)                  CS000108357
0570200385CHOU,CHAN-FU (MR)                  AS000108357
0500604940CHIU-MAO ENTERPRISE CO.,LTD.       AS000108365
0500904941THAI MARBLE MINING                 AS000108373
0500304948CHANG,TA-CHIN (MR)                 AS000108449
0500204954WANG,TSAI-HO (MR)                  AS000108506
0500804956LEEHUN SAE LIW (MRS)               AS000108522
0500304957WINBEST PLASTIC CO.,LTD.           AS000108530
0500104960YANG,HSI-CHAO (MR)                 AS000108563
0500804965CHEN,CHUN-JU (MR)                  CS000108613
0500304966CHANG,TUNG-YUEH (MR)               AS000108621
0500604967TOU,SHIU-CHUAN (MR)                AS000108639
0500904968HUANG,WEN-YI (MR)                  AS000108647
0570200595HUANG,WEN-YI (MR)                  AS000108647
0100207476PRO ACE U.K. (THAI)                AC000108654
0500104969PRO ACE U.K. (THAI)                AS000108654
0500404970CHENG,CHEN-TE (MR)                 AS000108662
0500804974SOMPIS JOWVITOONKIT (MISS)         CS000108704
0100307479MERCY FOOD (THAILAND) CO.,LTD.     CC000108712
0500304975MERCY FOOD (THAILAND) CO.,LTD.     AS000108712
0100807480DESIGN ENTERPRISE CO.,LTD.         CC000108746
0500104978DESIGN ENTERPRISE CO.,LTD.         AS000108746
0500404979LIU,CHAO-MING (MR)                 AS000108753
0100708236MA,LING-YAN (MISS)                 CC000108761
0500704980MA,LING-YAN (MISS)                 AS000108761
0500804983CHANG,CHAO-TUNG (MR)               AS000108795
0500904986LIN,WEN-CHANG (MR)                 AS000108829
0500204990HUNG,WEN-CHENG (MR)                AS000108860
2200607489CHANG JIA CERAMIC CO.,LTD.         AC000108910
0500105005CHANG JIA CERAMIC CO.,LTD.         CS000108910
0580500185CHANG JIA CERAMIC CO.,LTD.         AS000108910
0100507965CHIU,I-SHOU (MR)                   CC000108928
0500806084CHIU,I-SHOU (MR)                   CS000108928
0100808196YAO,CHIH-YUAN (MR)                 AC000108944
0500205008YAO,CHIH-YUAN (MR)                 CS000108944
0570100543YAO,CHIH-YUAN (MR)                 AS000108944
1200907490COMMUWELL ENTERPRISE(TH)CO.,LTD.   AC000108951
0500805545COMMUWELL ENTERPRISE(TH)CO.,LTD.   AS000108951
0580800201COMMUWELL ENTERPRISE(TH)CO.,LTD.   AS000108951
0500305011HSU,TUNG-MING (MR)                 CS000108977
0500405015YANG,KWANG-MING (MR)               CS000109017
0100207578CHEN,SHIH-CHENG (MR)               AC000109041
0500505018CHEN,SHIH-CHENG (MR)               CS000109041
0100907937THACHALAI TREEVITTAYANURAK (MRS)   CC000109058
0500605021HUANG,FONG-YING (MR)               CS000109074
0100207494YEN,HSING-CHUNG (MR)               AC000109140
0500805028YEN,HSING-CHUNG (MR)               AS000109140
0500305029HUANG,JUI-LANG (MR)                AS000109157
0500505036PONGTHORN SIRITHIENTHONG (MR)      AS000109223
0100407501CHEN HUANG,CHIU-MEI (MRS)          AC000109231
0500805037CHEN HUANG,CHIU-MEI (MRS)          AS000109231
0100107500FAITH TAR INTERNATIONAL CO.,LTD.   AC000109249
0500305038FAITH TAR INTERNATIONAL CO.,LTD.   AS000109249
0500605039SOMPONG MUNSUWAN                   AS000109256
0500905040CHOU,CHUN-CHEN (MR)                AS000109264
0100207503YU,TZU-YUAN (MR)                   AC000109280
0500405042YU,TZU-YUAN (MR)                   AS000109280
0500505045HUANG,YEN-HSIU (MISS)              CS000109314
0500605048THAI ORIGINAL TELEPH               AS000109348
0500406086DUANGRUEDEE MIT (MISS)             AS000109371
0500705052NUJ MANPOWER AGENCY CO.,LTD.       AS000109389
0100107509THAI YANG INT'L LTD                CC000109405
0500505054THAI YANG INT'L LTD                AS000109405
2100107518HUI THAI FOOTWEAR INDUSTRY CO.,LTD.AC000109413
0500805055HUI THAI FOOTWEAR INDUSTRY CO.,LTD.AS000109413
0100107825SUWANNA KULKITPHATTANA (MISS)      CC000109421
0590105056SUWANNA KULKITPHATTANA (MISS)      CS000109421
2200407768EVER GOOD (THAILAND) CO.,LTD.      AC000109447
0500905058EVER GOOD (THAILAND) CO.,LTD.      AS000109447
0580300386EVER GOOD (THAILAND) CO.,LTD.      AS000109447
0100107511DIAW,DO-EN (MR)                    CC000109454
0500105059DIAW,DO-EN (MR)                    CS000109454
0500705061CHEN,TSU-NANG (MR)                 AS000109470
0500205062SOMCHAI VORAKAITDAM (MR)           AS000109488
0500505063LU,HSIU-CHUAN (MISS)               AS000109496
0500605066LEE,FENG-HSIANG (MR)               AS000109520
0100307515LIAO,CHIUNG-YING (MISS)            AC000109587
0500505072LIAO,CHIUNG-YING (MISS)            CS000109587
0500805073CHIU,CHENG-YUAN (MR)               AS000109595
0500605075LAI,CHUN-LIANG(MR)                 AS000109611
0500905076CHEN,JUI-CHIA (MR)                 AS000109629
0500105077LIN,MU-SHUI (MR)                   AS000109637
0500606087CHEN,JU-MIN (MISS)                 CS000109645
1200907517THAI WONDERFUL WIRE CABLE CO.,LTD. CC000109686
0500805082THAI WONDERFUL WIRE CABLE CO.,LTD. CS000109686
0580100715THAI WONDERFUL WIRE CABLE CO.,LTD. AS000109686
0500105083KUILIAD SAE CHAO                   CS000109694
0500605084LENG SAE CHUA OR SOM               AS000109702
0500405087KULNATEE CHINKULPRASERT (MISS)     CS000109736
0100707520TAYA ENTERPRISE CORP.(THAILAND)LTD.CC000109744
0500705088TAYA ENTERPRISE CORP.(THAILAND)LTD.AS000109744
0500505090SRI MAUNG ROONG CO.                AS000109769
0500805091CHANG,JUNG-SAN (MR)                AS000109777
0570100181CHANG,JUNG-SAN (MR)                AS000109777
0100107527CHAUSERM YACHT & F.R               CC000109819
0500405096KO,LIEN-WAN (MR)                   AS000109827
0100407528MAUNG ROONG LTD.                   AC000109835
0500705097MAUNG ROONG LTD.                   AS000109835
0500205098CHIU FAN,I-YUN (MRS)               CS000109843
0500709903CHIU FAN,I-YUN (MRS)               AS000109843
0500805100FOEIMING SAE FUNG                  CS000109868
2200307542HWATAI INDUSTRY CO.,LTD.           CC000109884
0500605102HWATAI INDUSTRY CO.,LTD.           CS000109884
0580600020HWATAI INDUSTRY CO.,LTD.           CS000109884
0500905103SIAM HOPE IND.CO.LTD               CS000109892
0500405105CHUNG,CHING-TENG (MR)              AS000109918
0500205107KUO,YI-CHUNG (MR)                  AS000109934
0570400057KUO,YI-CHUNG (MR)                  AS000109934
0500505108LIN,TIEN-CHU (MR)                  AS000109942
0100607534UNIOCOM RUBBER PRODUCTS CORPORATIONAC000109959
0500805109UNIOCOM RUBBER PRODUCTS CORPORATIONCS000109959
0500305110HSU,LONG-JEN (MR)                  AS000109967
1200907535HO THAI PLASTIC CO.,LTD.           CC000109975
0500605111HO THAI PLASTIC CO.,LTD.           CS000109975
0580600721HO THAI PLASTIC CO.,LTD.           AS000109975
0500905112REBAR ALUMINIUM CO.                CS000109983
0100407969TSAI,CHIN-CHUNG (MR)               CC000110015
0500906089TSAI,CHIN-CHUNG (MR)               CS000110015
0570100467TSAI,CHIN-CHUNG (MR)               CS000110015
2200207968CONCORDCITY CORP.,LTD.             AC000110023
0500906090CONCORDCITY CORP.,LTD.             AS000110023
0580600483CONCORDCITY CORP.,LTD.             AS000110023
0100607970CARI-ALL (THAILAND)                AC000110031
0500306091CARI-ALL (THAILAND)                AS000110031
0500706093CHANG,YING-MAN (MS)                CS000110056
0500906094HSU,HO-CHANG (MR)                  AS000110064
0500206095TSAI,I-MING (MR)                   CS000110072
0500606097LEE,CHIN-LUN (MR)                  AS000110098
0100807971FAN,SU-MING(MR)                    AC000110106
0500806098FAN,SU-MING(MR)                    AS000110106
0100307973LEE-LIN APPAREL CO.,LTD.           AC000110122
0500706100LEE-LIN APPAREL CO.,LTD.           AS000110122
0580601386LEE-LIN APPAREL CO.,LTD.           AS000110122
0100808268LAI,CHIEN-JEN (MR)                 CC000110130
0500106101LAI,CHIEN-JEN (MR)                 AS000110130
0500206102WANG,A-HSIANG (OR)BENJARAT PRATHEEPAS000110148
0500406104CHEN BOLIAN (MR)                   CS000110163
0500406105CHUNG,HUI-YUAN (MISS)              CS000110171
0500606106CHUANG,CHIN-KU (MR)                CS000110189
0500906109LIEN,CHAO-MING (MR)                CS000110213
0100308180JEAN,WONG KUAN-MAY (MRS)           AC000110221
0500106110JEAN,WONG KUAN-MAY (MRS)           AS000110221
0570300174JEAN,WONG KUAN-MAY (MRS)           AS000110221
0100907976CHIN HUNG ENTERPRISE CO.,LTD.      CC000110239
0500206111CHIN HUNG ENTERPRISE CO.,LTD.      CS000110239
0500306112JOH JOON CO.,LTD.                  AS000110247
0100407978CHEN,LI-NA (MISS)                  CC000110262
0500506114CHEN,LI-NA (MISS)                  AS000110262
0570200055CHEN,LI-NA (MISS)                  AS000110262
0500806117HAN,PING (MR)                      AS000110296
0500906118CHUNG,TIEN-CHENG(MR)               AS000110304
0500607266CHUANG,YUNG-CHIN (MR)              CS000110320
0500306121CHEN,LI-WEI (MR)                   AS000110338
0500406122FUTURE HI-TECH CO.                 CS000110346
0100107981LIU,CHUNG-CHI (MR)                 AC000110353
0100909126YEH,CHING-FEN (MISS)                C000110361
0500606124YEH,CHING-FEN (MISS)               AS000110361
0570500366YEH,CHING-FEN (MISS)               CS000110361
0570801637YEH,CHING-FEN (MISS)               AS000110361
0500806126CHEN,SHIH-MING (MR)                CS000110387
0100607988LU,YUNG-SHENG (MR)                 CC000110403
0500206128LU,YUNG-SHENG (MR)                 CS000110403
0570101058LU,YUNG-SHENG (MR)                 CS000110403
0500206129WU,TSUNG-CHIN (MR)                 AS000110411
0500306130CHANG,JEN-CHIEH (MR)               AS000110429
0100707984LIN,YU-SAN (MR)                    CC000110437
0100709010LIN,YU-SAN (MR)                    AC000110437
0500306131LIN,YU-SAN (MR)                    AS000110437
0100507983CHOU,CHIH-HSIANG (MR)              CC000110445
0500406132CHOU,CHIH-HSIANG (MR)              CS000110445
0500506133LUMPUEI SAIMAKAEW (MISS)           CS000110452
0500506134SAWAROS LADAWAN (MRS)              AS000110460
0100907985SONG,BOIVAN (MR)                   AC000110486
0500606136SONG,BOIVAN (MR)                   AS000110486
0100207986LEO CONSTRUCTION CO.,LTD.          CC000110494
0500706137LEO CONSTRUCTION CO.,LTD.          CS000110494
0100107990DELTA ELECTRONICS(THAILAND)PCL     CC000110528
0500806140DELTA ELECTRONICS(THAILAND)PCL     CS000110528
0580600059DELTA ELECTRONICS(THAILAND)PCL     CS000110528
0100307991CHANG,JING-JOU (MR)                AC000110536
0500906141CHANG,JING-JOU (MR)                AS000110536
0500206144CHOU,HSI-CHING (MR)                CS000110569
0500306145LIU,PAN-NING (MR)                  AS000110577
0500506147THEPYANEE THENKHAMNAO(MISS)        AS000110593
0100907994LIN,HSI-TUNG (MR)                  AC000110601
0500606148LIN,HSI-TUNG (MR)                  AS000110601
0500706149TSAI,KUN-LIN (MR)                  CS000110619
0100407996HUANG,MIN-KUNG (MR)                AC000110627
0500806150HUANG,MIN-KUNG (MR)                AS000110627
0500906151ARKUNA ORGANISM CO.,LTD.           CS000110635
0500506154CHEN,TE-KUEI (MR)                  AS000110668
0500806156CHANG,JUI-CHIANG (MR)              CS000110684
0500906157THAI GRAIN EQUIPMENT               AS000110692
0100508001CHIU YEN,CHUNG-CHIN (MRS)          AC000110700
0500106158CHIU YEN,CHUNG-CHIN (MRS)          AS000110700
0500106159LIU,TSENG-FENG (MR)                AS000110718
0500306160CHANG,PEI-FU (MR)                  AS000110726
0500606163CHEN,CHING-WEI (MR)                AS000110759
0500806165HSIEH,YA-JEN (MR)                  AS000110775
0500906166TIEN,CHING-LIANG (MR)              CS000110783
0100208031CHO,CHUN-YU (MR)                   CC000110817
0500306169CHO,CHUN-YU (MR)                   AS000110817
0570700693CHO,CHUN-YU (MR)                   AS000110817
0500106171CHEN,JUI-LIEH (MR)                 AS000110833
0100408005EUROP TRONIC (THAILAND) CO.,LTD    AC000110841
0500306172EUROP TRONIC (THAILAND) CO.,LTD    AS000110841
0100308009LIEN,CHIEH-SIN (MR)                AC000110874
0500906175LIEN,CHIEH-SIN (MR)                AS000110874
0500406177CHOU,HSIUNG-CHUNG (MR)             AS000110890
0500606178LAN,CHIN-CHOU (MR)                 AS000110908
0100908012MASTER INDUSTRIAL(THAILAND)LTD.PARTCC000110916
0500806179MASTER INDUSTRIAL(THAILAND)LTD.PARTCS000110916
0500306181KUEN,MO-LEE (MR)                   CS000110932
0500706183CHOU,FEN-CHEN (MISS)               AS000110957
0500906184WU,CHIN-YIN(MR)                    CS000110965
0100608015LU,YEN-CHUAN (OR) HUANG,WEN-SUNG   AC000110973
0500206185LU,YEN-CHUAN (OR) HUANG,WEN-SUNG   CS000110973
0500406186LIU,SHU-MEI (MISS)                 CS000110981
0500809784PRADIT SUPOONNA (MAJ.)             AS000110999
0500806188TSAI,CHUI-CHING (MR)               CS000111005
0570700905TSAI,CHUI-CHING (MR)               CS000111005
0500106189LOWENHERTS (THAILAND) CO.,LTD.     AS000111013
0500306190TAN DER SHYUAN (OR)                AS000111021
0500506191TAI,CHUNG-I (OR) LU,CHAO-YING(MR,MRAS000111039
0100308018M.T.I. INDUSTRY CO.,LTD.           AC000111054
0500906193M.T.I. INDUSTRY CO.,LTD.           AS000111054
0100608141FOUNDATION OF EDUCATION FOR THAI-  AC000111062
0500206194FOUNDATION OF EDUCATION FOR THAI-  CS000111062
0100908025LEE,TENG-TSAI (MR)                 AC000111088
0500606196LEE,TENG-TSAI (MR)                 AS000111088
0500806197WU,TING-MING (MR)                  AS000111096
0570300067WU,TING-MING (MR)                  AS000111096
0100908030THAI SYNTHETIC FABRIC CO.,LTD.     CC000111112
0500306199THAI SYNTHETIC FABRIC CO.,LTD.     CS000111112
0100307470WU LIN,SHU-YEN (MRS)               AC000111120
0500706201CHEN,RONG-TONG (MR)                AS000111138
0100208022GREAT EAGLE CO.,LTD.               CC000111146
0500906202GREAT EAGLE CO.,LTD.               AS000111146
0500808094YEN,CHIH-MING (MR)                 AS000111153
0570500777YEN,CHIH-MING (MR)                 AS000111153
0500406204HUANG,LUNG-CHI (MR)                AS000111161
0100308099WU,WEN-YU (MR)                     AC000111179
0500806206KUAN,CHIA-LI (MISS)                CS000111187
0500106207WANG,CHING-CHIN (MR)               CS000111195
0570301271YEE,KIN-HUNG (AND/OR) LAI-PING,CHAUCS000111203
0570900828YEE,KIN-HUNG (AND/OR) LAI-PING,CHAUCS000111203
0500906209CHANG,SU-CHEN (MISS)               AS000111211
0100908021FONG YA ENTERPRISE(TH)CO.LTD.      AC000111229
0500206210FONG YA ENTERPRISE(TH)CO.LTD.      AS000111229
0580400068FONG YA ENTERPRISE(TH)CO.LTD.      AS000111229
0100808882HSU,CHIH-CHUN (MR)                 CC000111237
0500406211HSU,CHIH-CHUN (MR)                 AS000111237
0570901361HSU,CHIH-CHUN (MR)                 AS000111237
0100608024LONG YO CO.,LTD.                   CC000111245
0500806212LONG YO CO.,LTD.                   AS000111245
0500106213VIWAT CHAROENTHANGVITAYA (MR)      CS000111252
0100508073PAUL S.T. LIU (MR)                 AC000111260
0500406252PAUL S.T. LIU (MR)                 AS000111260
0570300470PAUL S.T. LIU (MR)                 CS000111260
0570600370PAUL S.T. LIU (MR)                 CS000111260
0500306215AMORNRAT MAHAPASAKON (MISS)        CS000111278
0500606216WANG,JUNG-HUA (MR)                 AS000111286
0500906217HUANG,NAN (MR)                     AS000111294
0500206218HSIEH,CHING-CHUAN (MR)             AS000111302
0500406219LIN,MIN (MR)                       AS000111310
0100708038NANTARAT SUEBWONGNAT (MISS)        AC000111336
0100208040NOPPHAMART SIRICHAYAPORN (MISS)    CC000111344
0100409276NAPAPORN CHATCHAISOPON (MISS)      AC000111377
0590906225NAPAPORN CHATCHAISOPON (MISS)      CS000111377
0100108026TEN'S UNION CO.,LTD.               CC000111385
0500206226TEN'S UNION CO.,LTD.               AS000111385
0500406227LIN,MAO-HSIN (MR)                  AS000111393
0500606228MA,SHUN-AN (MR)                    CS000111401
0100508028CHUNTEX ELECTRONIC(THAILAND)CO.,LTDCC000111419
0500806229CHUNTEX ELECTRONIC(THAILAND)CO.,LTDCS000111419
0500106230CHEN,CHIH-WEI (MR)                 AS000111427
0500306231TAI,FANG-MING (MR)                 AS000111435
0100507522KU FONG CO.,LTD.                   CC000111450
0100608069SHIH,CHIH-HSUEH (MR)               CC000111468
0500206234SHIH,CHIH-HSUEH (MR)               AS000111468
0100207368COLUMN INDUSTRIAL                  CC000111476
0500703871PORNPRAPA LUJITWATAN (MS)          AS000111484
0500806237NOPAWAN VUTIYANGKUL                CS000111492
0500706083CHEN,CHIN-CHIH (MR)                AS000111500
0100308036CHUNG TAI TELECOMMUNICATION(TH)CORPAC000111526
0500506240CHUNG TAI TELECOMMUNICATION(TH)CORPAS000111526
0580700722CHUNG TAI TELECOMMUNICATION(TH)CORPAS000111526
0500206242SUCHAREE CHIMSOPORN (MS)           AS000111542
0100108035KUANG HUNG ELECTRONIC(T)CO,LTD     CC000111559
0500406243KUANG HUNG ELECTRONIC(T)CO,LTD     AS000111559
0580500078KUANG HUNG ELECTRONIC(T)CO,LTD     AS000111559
0500606244CIVICA MOLDS CO.,LTD               CS000111567
0500806245WANG,YAO-SHENG(MR)                 CS000111575
0500306247WEERA KHAWNUAL(MR)                 CS000111591
0100207251FANCY PLASTIC INDUSTRIES CO.,LTD.  CC000111609
0580700187FANCY PLASTIC INDUSTRIES CO.,LTD.  AS000111609
0500506248TANG,KUO-PIN (MR)                  CS000111617
0500706249WANG,MING-YANG(MR)                 AS000111625
0100506780F.E.W. INDUSTRIAL CO.,LTD.         AC000111641
0500206251CHI,WEN-CHENG (MR)                 AS000111666
0100908039JUAN,SHU-LING (MRS)                CC000111682
0500606253JUAN,SHU-LING (MRS)                CS000111682
0500806254LIU,SU-FEN (OR) LIU                AS000111690
0100408041CHANG,CHUANG LIN-HUI (MRS)         AC000111708
0500106255CHANG,CHUANG LIN-HUI (MRS)         AS000111708
0500506257QU,YI(MR)                          CS000111724
0500706258PRANOT SIRINONGKHON                CS000111732
0500906259CHALONG JAIKHEW (MR)               AS000111740
0500206260LIAO,CHI-HSUN (MR)                 AS000111757
0100808043HWA JUNG COMPONENTS(T) CO.,LTD.    CC000111773
0500606262HWA JUNG COMPONENTS(T) CO.,LTD.    AS000111773
0580100074HWA JUNG COMPONENTS(T) CO.,LTD.    CS000111773
0500806263TENG,WEN-KUANG (MR)                AS000111781
0500106264KAO,CHI-PU (MR)                    CS000111799
0100508046VOLMAX INTER'L CO.,                AC000111807
0500306265VOLMAX INTER'L CO.,                AS000111807
0500906268LO,WING-PING (MR)                  AS000111831
0100108044YANG,FU-CHUNG (MR)                 AC000111849
0500206269YANG,FU-CHUNG (MR)                 AS000111849
0500606271CHEN,CHI-CHUNG (MR)                AS000111864
0500806272LAI,YU-YEN (MRS)                   AS000111872
0570700487LAI,YU-YEN (MRS)                   AS000111872
0500106273LEE,SHIANG-JEN (MS)                AS000111880
0500306274TSAI,LI-KAN (MISS)                 AS000111898
0500506275MAK,SENG-CHOY(MR)                  AS000111906
0100708047SUSANNA LIANG (MRS)                AC000111922
0500906277SUSANNA LIANG (MRS)                AS000111922
0500206278CHEN,YUAN-TUNG (MR)                AS000111930
0500406279CHOU,SU-CHEN (MISS)                AS000111948
0500806281CHIU,YI-CHUAN (MR)                 AS000111963
0500106282CHEN,CHIH-YUNG (MR)                AS000111971
0100808052SUN,PI-YEH (MR)                    AC000111989
0500306283SUN,PI-YEH (MR)                    AS000111989
0570600121SUN,PI-YEH (MR)                    CS000111989
0100908048M I S CONSTRUCTION                 AC000111997
0500506284M I S CONSTRUCTION                 CS000111997
0500706285NARONGKORN CHAIYANAN(OR)JIRAPORN   AS000112003
0500906286HE QIAOJING (MISS)                 AS000112011
0500206287CIVICA (THAILAND) CO.,LTD.         CS000112029
0500606289WANG,JIH-FU(OR)WANG TSAO YUEH-YING CS000112045
0500806290LIU,TANG-KUEI (MR)                 AS000112052
0500106291P.R. FOLLOW                        CS000112060
0500106292ARAYA TAKTHAM (MISS)               AS000112078
0100608051BLANCA LU (MR)                     AC000112102
0500906295BLANCA LU (MR)                     AS000112102
0570801351BLANCA LU (MR)                     AS000112102
0500206296AMNAJ YOTJAIYEN (MR)               CS000112110
0100108053SHEEN D. JEWELRY(THAILAND)CO.,LTD. AC000112136
0500606298SHEEN D. JEWELRY(THAILAND)CO.,LTD. AS000112136
0580400184SHEEN D. JEWELRY(THAILAND)CO.,LTD. AS000112136
0500806299KAO,SHIH-YUN (MRS)                 AS000112144
0100508055SUPER RICH ENT.                    AC000112151
0500106300SUPER RICH ENT.                    AS000112151
0500306301HSU,CHIH-CHIEH (MR)                AS000112169
0570200523HSU,CHIH-CHIEH (MR)                AS000112169
0100708065NEPTUNE INTER.CO.LTD               AC000112177
0500506302NEPTUNE INTER.CO.LTD               AS000112177
0100408059DAVID TAI-SHENG(MR)                AC000112193
0100708056KUO HUEI LIEN (OR) CHANG HANN SHENGCC000112201
0500206305KUO HUEI LIEN (OR) CHANG HANN SHENGAS000112201
0500406306OU,SUNG FENG-MEI (MRS)             AS000112219
0500606307CROWN-TECH ENGINEERING(TH)CO.,LTD. AS000112227
0500806308WANG,HSIN-LUNG(OR (MR)             AS000112235
2200208058THAI CHAROEN THONG KARNTOR CO.,LTD.AC000112243
0500106309THAI CHAROEN THONG KARNTOR CO.,LTD.AS000112243
0580600337THAI CHAROEN THONG KARNTOR CO.,LTD.AS000112243
0500306310SHIH,MING-TEH (MR)                 AS000112250
0570100593SHIH,MING-TEH (MR)                 AS000112250
0500506311PARVINEE NGUMAKSORN                CS000112268
0100608060THAI YU CO.LTD.                    CC000112276
0500706312THAI YU CO.LTD.                    AS000112276
0500906313CHANG,YAU-HSING (MR)               AS000112284
0500206314HWANG,CHEN-CHI (MR)                AS000112292
0100808061SATHAPORN KITTIRUNG (MS)           AC000112318
0500606316SATHAPORN KITTIRUNG (MS)           CS000112318
0500806317CHANG,CHENG-TSUNG (MR)             CS000112326
0100908066LEE,SHUEN-CHIN (MR)                CC000112342
0500306319LEE,SHUEN-CHIN (MR)                AS000112342
0100308063CAO QINGWEN (MR)                   CC000112359
0500506320CAO QINGWEN (MR)                   CS000112359
0500906322A-THON GRATPATTAN (MR)             CS000112375
0500206323LAWAN PHANKOKGUAD                  CS000112383
0500206780YIAN,PO-YING (MR)                  CS000112409
0570800339YIAN,PO-YING (MR)                  AS000112409
0500606613KUO,CHUNG-CHIN(OR) KUO,YIN-HSI     CS000112417
0100108188SUTHUM CHANGKAJONSAK (MR)          AC000112433
0500106615SUTHUM CHANGKAJONSAK (MR)          AS000112433
0100608186CHEN HUNG ENTERPRISE CO.,LTD.      CC000112441
0500306616CHEN HUNG ENTERPRISE CO.,LTD.      CS000112441
0580500196CHEN HUNG ENTERPRISE CO.,LTD.      CS000112441
0100108350LI,ZHU-CAI (MR)                    CC000112466
0500706618LI,ZHU-CAI (MR)                    CS000112466
0500206620LIN,YI-YI (MR)                     AS000112482
0100908192WEI,YUNG-LIN (MR)                  AC000112508
0500606622WEI,YUNG-LIN (MR)                  AS000112508
0570800208WEI,YUNG-LIN (MR)                  AS000112508
0500906626CHEN,YING-CHUN (MR)                CS000112540
0570500277CHEN,YING-CHUN (MR)                CS000112540
0100508271CHEN,SHU-HUEI (MISS)               AC000112557
0100909281CHEN,SHU-HUEI (MISS)               AC000112557
0500206627CHEN,SHU-HUEI (MISS)               AS000112557
0570100205CHEN,SHU-HUEI (MISS)               AS000112557
0100708191HSU,HSIU-JUNG (MR)                 AC000112565
0500406628HSU,HSIU-JUNG (MR)                 CS000112565
0570100207HSU,HSIU-JUNG (MR)                 AS000112565
0500606629YANG,YUN-CHUAN (MR)                AS000112573
0570200206YANG,YUN-CHUAN (MR)                AS000112573
0500306632LIN,YUAN-CHIA (MR)                 CS000112607
0100408185TU,CHING-HO (MR)                   CC000112615
0590906633TU,CHING-HO (MR)                   AS000112615
0570701839TU,CHING-HO (MR)                   AS000112615
0500706634SHIH,CHENG-CHANG(OR)WU,SU-CHEN     CS000112623
0500906635LONG DER TRADING CO.,LTD.          AS000112631
0500206636SUWANNA LEE (MRS)                  AS000112649
0100308189CHANG,CHIN-WEN(AND)CHEN,CHI-LI(AND)CC000112656
0500406637CHANG,CHIN-WEN(AND)CHEN,CHI-LI(AND)AS000112656
0100508190SUPER MADE PRODUCTS CO.,LTD.       AC000112664
0500606638SUPER MADE PRODUCTS CO.,LTD.       AS000112664
0580400215SUPER MADE PRODUCTS CO.,LTD.       AS000112664
0100808786LIU,MEI-PING (MISS)                CC000112672
0500806639LIU,MEI-PING (MISS)                CS000112672
0100208193WANG,CHI-MING (MR)                 CC000112680
0500106640WANG,CHI-MING (MR)                 AS000112680
0570500216WANG,CHI-MING (MR)                 AS000112680
0500306641LU,SHU-CHUN (MS)                   AS000112698
0500506642KUO,CHENG-CHI (MR)                 CS000112706
0100408194THAI UNION PLASTIC&MACHINERY CO.LTDCC000112714
0500706643THAI UNION PLASTIC&MACHINERY CO.LTDCS000112714
0100908195LIN,SHENG-YUAN (MR)                CC000112722
0500906644LIN,SHENG-YUAN (MR)                AS000112722
0500206645DOBSON WU (MR)                     AS000112730
0500406646SUKANYA PICHITPONGCH (MRS)         AS000112748
0100108224SHENG TAI BRASSWARE (TH) CO.,LTD.  AC000112771
0500106649SHENG TAI BRASSWARE (TH) CO.,LTD.  AS000112771
0580600224SHENG TAI BRASSWARE (TH) CO.,LTD.  AS000112771
0500306650TU,YU-YI (MR)                      CS000112789
0500506651WANG,CHIA-CHING (MR)               AS000112797
0570400227WANG,CHIA-CHING (MR)               AS000112797
0500706652CHO,LI-JEN (MR)                    AS000112805
0100608488FINE CONTINENT INDUSTRIAL CO.,LTD. AC000112813
2200108197FINE CONTINENT INDUSTRIAL CO.,LTD. AC000112813
0500906653FINE CONTINENT INDUSTRIAL CO.,LTD. AS000112813
0500907426FINE CONTINENT INDUSTRIAL CO.,LTD. AS000112813
0580600230FINE CONTINENT INDUSTRIAL CO.,LTD. CS000112813
0100908228WU KUNG,HAI-YEN (MRS)              AC000112821
0500206654WU KUNG,HAI-YEN (MRS)              AS000112821
0570901396WU KUNG,HAI-YEN (MRS)              AS000112821
0500406655EVER HOLY INTERNATIONAL CO.,LTD.   CS000112839
0590606656CHEN,FENG-YUAN (MR)                CS000112847
0570400823CHEN,FENG-YUAN (MR)                AS000112847
0500806657HWANG,MAO-CHANG (MR)               AS000112854
0500706661HUANG,CHIAO-PING (MISS)            AS000112896
0500206663LEE,CHEN-TIEN (MR)                 AS000112912
0500606665KUO,TIN-MING (MR)                  AS000112938
0100408248HSIUNG,TZU-YU (MISS)               AC000112946
0500806666HSIUNG,TZU-YU (MISS)               AS000112946
0570600251HSIUNG,TZU-YU (MISS)               CS000112946
0500106667CHANG,CHEN YU-YING (MRS)           AS000112953
0570700252CHANG,CHEN YU-YING (MRS)           AS000112953
0100308198WANG,AN-CHENG (MR)                 AC000112979
0500506669WANG,AN-CHENG (MR)                 AS000112979
0570801740WANG,AN-CHENG (MR)                 AS000112979
0500706670SAKULSAK THONGTHA (MR)             CS000112987
0100908548CHU,WEN-CHANG (MR)                 AC000112995
0500906671CHU,WEN-CHANG (MR)                 AS000112995
0500206672CHOU,TSAI-LING (MR)                AS000113001
0570200267CHOU,TSAI-LING (MR)                AS000113001
0500406673LITA INT'L EXPRESS(THAILAND)CO.LTD.AS000113019
0100708200J.T. INT'L DEVELOPMENT CO.,LTD.    CC000113035
0500806675J.T. INT'L DEVELOPMENT CO.,LTD.    AS000113035
0580600949J.T. INT'L DEVELOPMENT CO.,LTD.    AS000113035
2300908201SOMBOON PRAISANKUL (MR) AND        CC000113043
0500106676SOMBOON PRAISANKUL (MR) AND        AS000113043
0100408266LIN,HSI-LING (MR)                  CC000113050
0500306677LIN,HSI-LING (MR)                  CS000113050
0570400320DUWAT GILLES RENE (MR)             AS000113068
0500706679HSIEN CHUN IMP.EXP                 CS000113076
0570700318HUANG,LIEN-MEI (MS)                AS000113084
0500206681HSU,HSIU-HUA (MISS)                CS000113092
0500406682HONG,FAN-LIE (MR)                  AS000113100
0500606683WELLS KAO ENTERPRISE CO.,LTD.      AS000113118
0500806684KE,CHIEN-MING (MR)                 CS000113126
0500106685CHU,JIA-JIIN                       CS000113134
0500306686HSU,YUN-FONG (MRS)                 AS000113142
0570300268HSU,YUN-FONG (MRS)                 AS000113142
0100208202SPITZE ASIA CO.,LTD.               CC000113167
0500706688SPITZE ASIA CO.,LTD.               CS000113167
0570600278CHEN,CHUN-FENG (MR)                AS000113175
0100108215SWAN SIAM CORPORATION CO.,LTD.     AC000113183
0500206690SWAN SIAM CORPORATION CO.,LTD.     AS000113183
0580400303SWAN SIAM CORPORATION CO.,LTD.     AS000113183
0100408203CANKING ENGINEERING (TH) CO.,LTD.  AC000113191
0500406691CANKING ENGINEERING (TH) CO.,LTD.  AS000113191
0500606692CHEN,TSONG-HWA (MR)                AS000113209
0570800330LIN,MEI-CHU (MISS)                 AS000113225
0500306695TSUO,YUAN-YI (MISS)                AS000113233
0570500304TSUO,YUAN-YI (MISS)                AS000113233
0500506696LIN,YUNG-KEN(MR_)OR HSU            AS000113241
0570500305LIN,YUNG-KEN(MR_)OR HSU            AS000113241
0500206699TONGTAI MACHINERY CO.,LTD.         AS000113274
0580200291TONGTAI MACHINERY CO.,LTD.         AS000113274
0500406700YEN,JUI-HSIUNG (MR)                AS000113282
0570900329HSEU,MING-LII (MR)                 AS000113308
0100108377LIANG-HAI(THAILAND)CO.,LTD.        AC000113316
0500106703LIANG-HAI(THAILAND)CO.,LTD.        AS000113316
0580400294LIANG-HAI(THAILAND)CO.,LTD.        AS000113316
0100308216HOU,YA-CHI (MISS)                  AC000113332
0500506705HOU,YA-CHI (MISS)                  AS000113332
0570401445HOU,YA-CHI (MISS)                  AS000113332
0100708218DACOS INTERNATIONAL CO.,LTD.       AC000113340
0500706706DACOS INTERNATIONAL CO.,LTD.       AS000113340
0580600307DACOS INTERNATIONAL CO.,LTD.       AS000113340
0500906707HUANG,CHEN-JUNG (MR)               CS000113357
0500206708TSENG,CHANG SU-CHEN (MRS)          AS000113365
0500406709CHAO,MAO-TE (MR)                   CS000113373
0100408221HSU,CHIN-FA (MR)                   AC000113381
0500606710HSU,CHIN-FA (MR)                   AS000113381
0500909386HSU,CHIN-FA (MR)                   AS000113381
0500806711CHAI,WEN-BIN (MR)                  AS000113399
0570100312CHAI,WEN-BIN (MR)                  AS000113399
0500306713THAI CHEN YUON CO.,LTD.            AS000113415
0500506714HSU,PAO-CHIN (OR) CHOLLADA CHENCHA-CS000113423
0500706715HSU,CHING-HWA (MR)                 AS000113431
0570500296HSU,CHING-HWA (MR)                 AS000113431
0570800340TSAI,PAI-CHUNG (MR)                AS000113449
0500206717CAO MING (MR)                      AS000113456
0100708227HUEI HENG KNITTING                 CC000113464
0500406718HUEI HENG KNITTING                 CS000113464
0100808223LUCKY GROUP INTERNATIONAL CO.,LTD. CC000113472
0500606719LUCKY GROUP INTERNATIONAL CO.,LTD. CS000113472
0100508226CIMATRON (THAILAND) CO.,LTD.       CC000113480
0500806720CIMATRON (THAILAND) CO.,LTD.       CS000113480
0100308225TASHIN ELECTRIC INDUSTRIES CO.,LTD.CC000113498
0500106721TASHIN ELECTRIC INDUSTRIES CO.,LTD.CS000113498
0570900341WANG,HSIAO-YU (MR)                 AS000113506
0500506723LIU,CHAO-CHIN (MR)                 AS000113514
0100708466LIU,CHAO-HSIANG (MR)               CC000113522
0500706724LIU,CHAO-HSIANG (MR)               CS000113522
0100208229MEE LAP TOUR TIS CO.,LTD.          AC000113530
0500906725MEE LAP TOUR TIS CO.,LTD.          AS000113530
0500206726MAO JUNG TRADING CO.,LTD.          AS000113548
0500406727PANUWAT,MONTRI,ANCHALEE,VILAI      AS000113555
0500606728CHANG,WEN-YI (MR)                  AS000113563
